:020000040800F2
:100000000000022041040008D51F0008D71F000887
:10001000D91F0008DB1F0008DD1F000800000000DA
:10002000000000000000000000000000DF1F0008CA
:10003000E11F000800000000E31F0008E51F0008A2
:100040000D1B00080D1B00080D1B00080D1B0008F0
:100050000D1B00080D1B00080D1B00080D1B0008E0
:100060000D1B00080D1B00080D1B00080D1B0008D0
:100070000D1B00080D1B00080D1B00080D1B0008C0
:100080000D1B00080D1B00080D1B00080D1B0008B0
:100090000D1B00080D1B00080D1B00080D1B0008A0
:1000A0000D1B00080D1B00080D1B00080D1B000890
:1000B0000D1B00080D1B00080D1B00080D1B000880
:1000C0000D1B00080D1B00080D1B00080D1B000870
:1000D0000D1B00080D1B00080D1B00080D1B000860
:1000E0000D1B00080D1B00080D1B00080D1B000850
:1000F0000D1B00080D1B00080D1B00080D1B000840
:100100000D1B00080D1B00080D1B00080D1B00082F
:100110000D1B00080D1B00080D1B00080D1B00081F
:100120000D1B00080D1B00080D1B00080D1B00080F
:100130000D1B00080D1B00080D1B00080D1B0008FF
:100140000D1B00080D1B00080D1B00080D1B0008EF
:100150000D1B00080D1B00080D1B00080D1B0008DF
:100160000D1B00080D1B00080D1B00080D1B0008CF
:100170000D1B00080D1B00080D1B000800000000EF
:100180000D1B00080D1B00080000022041040008A0
:10019000D51F0008D71F0008D91F0008DB1F000863
:1001A000DD1F00080000000000000000000000004B
:1001B00000000000DF1F0008E11F00080000000031
:1001C000E31F0008E51F00080D1B00080D1B0008B9
:1001D0000D1B00080D1B00080D1B00080D1B00085F
:1001E0000D1B00080D1B00080D1B00080D1B00084F
:1001F0000D1B00080D1B00080D1B00080D1B00083F
:100200000D1B00080D1B00080D1B00080D1B00082E
:100210000D1B00080D1B00080D1B00080D1B00081E
:100220000D1B00080D1B00080D1B00080D1B00080E
:100230000D1B00080D1B00080D1B00080D1B0008FE
:100240000D1B00080D1B00080D1B00080D1B0008EE
:100250000D1B00080D1B00080D1B00080D1B0008DE
:100260000D1B00080D1B00080D1B00080D1B0008CE
:100270000D1B00080D1B00080D1B00080D1B0008BE
:100280000D1B00080D1B0008450500080D1B00088C
:100290000D1B00080D1B00080D1B00080D1B00089E
:1002A0000D1B00080D1B00080D1B00080D1B00088E
:1002B0000D1B00080D1B00080D1B00080D1B00087E
:1002C0000D1B00080D1B00080D1B00080D1B00086E
:1002D0000D1B00080D1B00080D1B00080D1B00085E
:1002E0000D1B00080D1B00080D1B00080D1B00084E
:1002F0000D1B00080D1B00080D1B00080D1B00083E
:100300000D1B0008000000000D1B00080D1B00085D
:1003100000B583B001F074FB384B394A1360394A99
:100320001360394906E011681960043304329842B9
:10033000F9D82146354B994205D20A684B6801F13C
:100340000C048868F3E72E4B1A68314B9A4200D0B0
:10035000FEE72C4B1A682F4B9A42F9D1274B2E4AB5
:1003600013602E4A13602E4B05E00020106004320B
:100370009342FAD80B462B4A934204D2194651F8BD
:10038000082B5B68F4E7244B1B6813B9234B1B68ED
:1003900003B1FEE701F07CFC694601A801F00CFB0B
:1003A000214B224CE41AA4100025AC4214DC204B53
:1003B000204CE41AA4100025AC4213DC00990198EB
:1003C00001F01AFD05461C4B1C4CE41AA410002C2D
:1003D0000EDC284601F0CCFA134B53F82530984731
:1003E0000135E2E7124B53F8253098470135E3E732
:1003F000013C114B53F824309847E8E7BABADECAFB
:1004000000000020E0010020480500086005000809
:100410007856341232547698E4010020C402002049
:1004200060050008700500087005000870050008E8
:1004300070050008700500087005000870050008C8
:1004400008B5FFF765FF00BEFEE71EF0040F0CBF06
:10045000EFF30880EFF309807146374A10472DE922
:10046000F04182B004468846084B5E6B9F6B9D6AE4
:10047000074801F0A9FACDF800803B4632462946EC
:10048000204601F0C9FA00BEFEE700BF00ED00E023
:100490005457000800BEFEE71EF0040F0CBFEFF338
:1004A0000880EFF309807146244A10472DE9F04196
:1004B00082B004468846084B5E6B9F6B9D6A074876
:1004C00001F082FACDF800803B46324629462046AC
:1004D00001F0A2FA00BEFEE700ED00E0645700085C
:1004E0001EF0040F0CBFEFF30880EFF30980714694
:1004F000134A10472DE9F04182B004468846084B64
:100500005E6B9F6B9D6A074801F05EFACDF8008034
:100510003B4632462946204601F07EFA00BEFEE701
:1005200000ED00E07057000800BEFEE700BEFEE7E9
:1005300000BEFEE7704700005F040008AD0400083D
:08054000F504000800BEFEE70F
:10054800785A000800000020E4010020785A0008CA
:100558000000001000000010E4010020C802002084
:0805680000000010000000106B
:1005700010B50446074B1868074BA3FB00308009F1
:1005800000F0A8F8002221464FF0FF3000F05EF89E
:10059000002010BD0C000020D34D621008B50B4B9D
:1005A0001A6842F400721A601A6842F480621A6093
:1005B0001A6842F480721A60032000F029F80020C3
:1005C000FFF7D6FF01F0ADFC002008BD003C024063
:1005D000024A136801331360704700BFB80200205D
:1005E000014B1868704700BFB802002030B583B0D7
:1005F0000190FFF7F5FF0546019CB4F1FF3F00D0E5
:100600000134FFF7EDFF401BA042FAD303B030BD29
:1006100010B50446C31E042B0FD80A4AD36823F42E
:10062000E0631B041B0C240204F4E064234343F046
:10063000BF6343F40033D36010BDA421024801F02E
:1006400005FCEAE700ED00E06455000870B50546DA
:100650000C4616460F2A24D80F2C27D81A4BDB68D5
:10066000C3F30223C3F10702042A28BF0422191D81
:10067000062920D9033B012101FA02F2013A144074
:100680009C4001FA03F3013B33401C43002D14DB73
:100690002401E4B205F1604505F5614585F80043A4
:1006A00070BDBC21094801F0D1FBD5E7BD21074849
:1006B00001F0CCFBD2E70023DDE705F00F052401B4
:1006C000E4B2034B5C5570BD00ED00E064550008DA
:1006D00014ED00E00138B0F1807F0AD2064B58607B
:1006E000F021064A82F823100020986007221A6041
:1006F00070470120704700BF10E000E000ED00E00F
:1007000010B50446042800D038B9042C0BD0094A8F
:10071000136823F00403136010BD40F2DB11064898
:1007200001F094FBF1E7034A136843F004031360FC
:1007300010BD00BF10E000E064550008704708B528
:10074000FFF7FCFF08BD00002DE9F04782B08046AE
:100750000F46B44B984223D003F5806398421FD0D4
:1007600003F5806398421BD003F58063984217D04D
:1007700003F58063984213D003F5806398420FD04D
:1007800003F5806398420BD003F58063984207D04D
:1007900003F58063984203D0C521A34801F056FBBE
:1007A0003B689AB212B11B0C1B041BB1C6219E48B8
:1007B00001F04CFB7B68012B22D9112B20D0022B9E
:1007C0001ED0122B1CD0994A934219D002F58012E8
:1007D000934215D002F58012934211D0A2F5F8127F
:1007E00093420DD002F58012934209D002F5801297
:1007F000934205D0032B03D0C7218B4801F026FB81
:10080000BB68022B01D8002575E0C821864801F09D
:100810001DFBF8E73B69FBB1092B1DD0012B1BD059
:10082000022B19D0032B17D0042B15D0052B13D076
:10083000062B11D0072B0FD0082B0DD00A2B0BD075
:100840000B2B09D00C2B07D00D2B05D00F2B03D071
:10085000D921754801F0FAFAE908083158F8213031
:1008600005F0070292000F20904023EA0003386948
:1008700000FA02F2134348F821304CE0EC216A48B8
:1008800001F0E4FA63E0072100E00021A1400A43FF
:100890000233674941F82320664B1A686FEA09035F
:1008A00002EA0301786810F4803F01D049EA0201AE
:1008B000604A1160526803EA0201786810F4003F50
:1008C00001D049EA02015B4A5160926803EA0201E1
:1008D000786810F4801F01D049EA0201554A9160FE
:1008E000D2681340796811F4001F01D049EA02036D
:1008F000504AD36001350F2D00F290800124AC40A6
:100900003B6804EA03094C45F4D17B68022B81D093
:10091000122B3FF47FAFD8F800304FEA450A032688
:1009200006FA0AF6F64333407A6802F0030202FA46
:100930000AF21343C8F800307B685A1E012A03D913
:10094000112B01D0122B16D1FB68032B96D8D8F8A7
:1009500008303340FA6802FA0AF21343C8F8083044
:10096000D8F8043023EA04047B68C3F30013AB40D7
:100970001C43C8F80440D8F80C301E40BB6803FA8A
:100980000AF31E43C8F80C607B6813F0805FB1D097
:1009900000230193284B5A6C42F480425A645B6CEA
:1009A00003F480430193019BAB08991C204A52F841
:1009B000212005F003018C000F21A14022EA010251
:1009C000184880453FF461AF1C4988451AD001F5AD
:1009D0008061884518D001F58061884516D001F501
:1009E0008061884514D001F58061884512D001F5F9
:1009F0008061884510D001F5806188453FF443AFA0
:100A0000082143E7012141E702213FE703213DE7B8
:100A100004213BE7052139E7062137E702B0BDE8AD
:100A2000F08700BF00000240985500080000111038
:100A300000380140003C0140003802400004024000
:100A400070B5064615460C4651B1012D04D94FF438
:100A5000D971074801F0FAF945B92404B46170BDB1
:100A600040F2B111024801F0F1F9EEE7B46170BD56
:100A70009855000838B505460C4621B94FF4E47185
:100A8000034801F0E3F96B695C406C6138BD00BF5D
:100A90009855000830B583B0044603680F2B3DD845
:100AA000236813F0010F4CD063684BB1B3F5803F5E
:100AB00006D0B3F5A02F03D0FB21AC4801F0C6F956
:100AC000AB4B9B6803F00C03042B31D0A84B9B6805
:100AD00003F00C03082B26D06368B3F5803F60D089
:100AE000B3F5A02F63D0A24B1A6822F480321A60AB
:100AF0001A6822F480221A606368002B61D0FFF725
:100B00006FFD05469A4B1B6813F4003F19D1FFF7A0
:100B100067FD401B6428F5D9032000E2F6219348C5
:100B200001F094F9BCE7924B5B6813F4800FD3D0CB
:100B30008F4B1B6813F4003F03D06368002B00F059
:100B4000EB81236813F0020F6DD0E368012B04D909
:100B500040F22D11854801F079F923691F2B3FD808
:100B6000834B9B6813F00C0F45D0814B9B6803F0BF
:100B70000C03082B3AD0E368002B00F0838001229D
:100B80007C4B1A60FFF72CFD0546794B1B6813F070
:100B9000020F68D1FFF724FD401B0228F5D903207E
:100BA000BDE1734A136843F480331360A4E7704BCC
:100BB0001A6842F480221A601A6842F480321A607D
:100BC0009AE7FFF70DFD0546694B1B6813F4003FDC
:100BD000B7D0FFF705FD401B6428F5D903209EE13F
:100BE0004FF49771614801F031F9B9E7604B5B68E8
:100BF00013F4800FBFD15E4B1B6813F0020F04D0BB
:100C0000E368012B01D0012089E15948036823F0F2
:100C1000F8032169F82292FAA2F2B2FA82F201FAFA
:100C200002F213430360236813F0080F4ED0636988
:100C3000012B04D94FF4B7714C4801F007F96369EF
:100C400093B301224C4B1A60FFF7CAFC0546484B90
:100C50005B6F13F0020F39D1FFF7C2FC401B022873
:100C6000F5D903205BE14248036823F0F8032169CA
:100C7000F82292FAA2F2B2FA82F201FA02F21343D5
:100C80000360D0E700223B4B1A60FFF7A9FC054642
:100C9000374B1B6813F0020FC5D0FFF7A1FC401BB8
:100CA0000228F5D903203AE10022334B1A60FFF7FE
:100CB00097FC05462E4B5B6F13F0020F06D0FFF733
:100CC0008FFC401B0228F5D9032028E1236813F08C
:100CD000040F76D0A368012B06D9052B04D04FF45E
:100CE000CC71224801F0B2F800230193204B1A6C1A
:100CF00042F080521A641B6C03F080530193019BF5
:100D00001E4A136843F480731360FFF769FC0546BD
:100D10001A4B1B6813F4807F06D1FFF761FC401B60
:100D20000228F5D90320FAE0A368012B28D0052B6F
:100D30002CD00F4B1A6F22F001021A671A6F22F0A3
:100D400004021A67A3685BB3FFF74AFC0546084B29
:100D50001B6F13F0020F34D1FFF742FC401B41F22E
:100D600088339842F3D90320D9E000BFD855000852
:100D70000038024000004742800E474200700040A9
:100D8000694A136F43F001031367DBE7664B1A6F81
:100D900042F004021A671A6F42F001021A67D1E7A3
:100DA000FFF71EFC0546604B1B6F13F0020F08D0C7
:100DB000FFF716FC401B41F288339842F3D9032019
:100DC000ADE0A369022B1FD8A369002B00F0A68019
:100DD000554A926802F00C02082A00F0A280022B09
:100DE00018D00022514B1A60FFF7FAFB04464E4B15
:100DF0001B6813F0007F00F08D80FFF7F1FB001BF4
:100E00000228F4D903208AE040F2CD11484801F0CD
:100E10001DF8D9E7E3693BB1B3F5800F04D04FF477
:100E2000EB71434801F012F8236A3F2B28D8636A1C
:100E3000323BB3F5BF7F29D8A36A022B0AD0042B1B
:100E400008D0062B06D0082B04D040F2D911384820
:100E500000F0FCFFE36A023B0D2B1DD80022334B50
:100E60001A60FFF7BDFB05462F4B1B6813F0007F90
:100E700018D0FFF7B5FB401B0228F5D903204EE040
:100E800040F2D7112A4800F0E1FFD0E74FF4EC71AF
:100E9000274800F0DBFFCFE74FF4ED71244800F066
:100EA000D5FFDBE7E369226A1343616A47F6C07244
:100EB00092FAA2F2B2FA82F201FA02F21343A26AA1
:100EC0005208013A4FF4403191FAA1F1B1FA81F19F
:100ED0008A401343E16A4FF0706292FAA2F2B2FACA
:100EE00082F201FA02F213430F4A536001220F4BC0
:100EF0001A60FFF775FB04460B4B1B6813F0007F6D
:100F000006D1FFF76DFB001B0228F5D9032006E090
:100F1000002004E0002002E0012000E0002003B0F7
:100F200030BD0120FBE700BF0038024060004742AF
:100F3000D8550008214B9B6803F00C03042B3AD0D2
:100F4000082B01D01E4870471C4B586800F03F002A
:100F50005B6813F4800F1ED01A4AB2FBF0F2174BF5
:100F6000586847F6C073184093FAA3F3B3FA83F3B3
:100F7000D84000FB02F0114B5B6803F440334FF4A0
:100F8000403292FAA2F2B2FA82F2D34001335B000D
:100F9000B0FBF3F070470A4AB2FBF0F2074B586817
:100FA00047F6C073184093FAA3F3B3FA83F3D8401B
:100FB00000FB02F0DFE70348704700BF0038024043
:100FC0000024F40040787D0170B504460D460368A6
:100FD000013B0E2B11D8072D15D88A4B1B6803F047
:100FE0000F039D4215D9EBB2864A1370136803F0C4
:100FF0000F039D420DD0012070BD4FF40E71824849
:1010000000F024FFE7E740F239217F4800F01EFF9F
:10101000E3E7236813F0020F1DD0A368A3B1802B70
:1010200012D0902B10D0A02B0ED0B02B0CD0C02BF8
:101030000AD0D02B08D0E02B06D0F02B04D04FF4F0
:101040001471714800F002FF704A936823F0F003B6
:10105000A1680B439360236813F0010F6DD06368A0
:10106000032B29D86368012B2CD09A1E012A30D972
:10107000664A126812F0020F00F0C28063498A6863
:1010800022F0030213438B60FFF7AAFA0646636857
:10109000012B25D0022B32D0032B3FD05B4B9B681A
:1010A00013F00C0F49D0FFF79BFA801B41F28833F5
:1010B0009842F3D9032070BD40F25721524800F006
:1010C000C5FECFE7514A126812F4003FD6D1012085
:1010D00070BD4E4A126812F0007FCFD1012070BD62
:1010E0004A4B9B6803F00C03042B26D0FFF778FAD9
:1010F000801B41F288339842F2D9032070BD434BE4
:101100009B6803F00C03082B17D0FFF769FA801BCC
:1011100041F288339842F2D9032070BD3B4B9B6863
:1011200003F00C030C2B08D0FFF75AFA801B41F296
:1011300088339842F2D9032070BD324B1B6803F00C
:101140000F039D4209D2EAB22E4B1A701B6803F0BE
:101150000F039D4201D0012070BD236813F0040FDE
:1011600019D0E36883B1B3F5805F0DD0B3F5A05F0C
:101170000AD0B3F5C05F07D0B3F5E05F04D040F20A
:10118000B621214800F062FE204A936823F4E05320
:10119000E1680B439360236813F0080F1AD02369AA
:1011A00083B1B3F5805F0DD0B3F5A05F0AD0B3F57E
:1011B000C05F07D0B3F5E05F04D040F2BD21124814
:1011C00000F044FE114A936823F46043216943EA26
:1011D000C1039360FFF7AEFE0C4B9B6803F0F00376
:1011E000F02292FAA2F2B2FA82F2D340084AD35C19
:1011F000D840084B18600020FFF7BAF9002070BDF6
:10120000012070BD003C0240D85500080038024063
:10121000C85500080C000020014B1868704700BF3B
:101220000C00002008B5FFF7F7FF074B9B6803F49D
:10123000E0534FF4E05292FAA2F2B2FA82F2D340B3
:10124000024AD35CD84008BD00380240C8550008A7
:1012500008B5FFF7E1FF074B9B6803F460434FF4C9
:10126000604292FAA2F2B2FA82F2D340024AD35C0E
:10127000D84008BD00380240C85500082DE9F047A5
:1012800004464268B64B9A4200F2A680E3683BB13E
:10129000B3F5005F04D040F68811B24800F0D6FDE7
:1012A000236953B1B3F5806F07D0B3F5C06F04D095
:1012B00040F68911AB4800F0C9FD63694FF6F3723F
:1012C000134200D123B940F68A11A64800F0BEFDB2
:1012D0002268136923F44053E1680B4313612168CA
:1012E000CB6823F4164323F00C03A2682069024361
:1012F00060690243E06902431343CB60226853698B
:1013000023F44073A1690B435361E369B3F5004FC4
:1013100068D0D4F80080944B984500F0298103F5FB
:101320008063984500F02481FFF77CFF00EB80008C
:1013300000EB80006568AD00B0FBF5F58B4FA7FBB7
:1013400005356D092E01FFF76DFF00EB800000EB06
:1013500080006568AD00B0FBF5FAFFF763FF00EBB6
:10136000800000EB80006568AD00B0FBF5F5A7FBE1
:1013700005356D094FF0640909FB15A52D013235BE
:10138000A7FB05356D0905F0F0053544FFF74AFF69
:1013900000EB800000EB80006668B600B0FBF6F65C
:1013A000FFF740FF00EB800000EB800063689B00CC
:1013B000B0FBF3F0A7FB0030400909FB10694FEACE
:1013C000091909F13209A7FB0937C7F343172F445D
:1013D000C8F80870BDE8F08740F68711614800F052
:1013E00035FD53E7D4F8008003F1804303F5104343
:1013F00098455CD003F58063984558D0FFF712FFFD
:1014000000EB800000EB800065686D00B0FBF5F537
:10141000564FA7FB05356D092E01FFF703FF00EBC3
:10142000800000EB800065686D00B0FBF5FAFFF707
:10143000F9FE00EB800000EB800065686D00B0FBFA
:10144000F5F5A7FB05356D094FF0640909FB15A5F6
:10145000ED003235A7FB05356D096D0005F4F87513
:101460003544FFF7DFFE00EB800000EB800066688C
:101470007600B0FBF6F6FFF7D5FE00EB800000EB40
:10148000800063685B00B0FBF3F3A7FB03235B09F9
:1014900009FB13694FEAC90909F13209A7FB0937AA
:1014A000C7F342172F44C8F80870BDE8F087FFF76C
:1014B000CFFE00EB800000EB800065686D00B0FBA4
:1014C000F5F52A4FA7FB05356D092E01FFF7C0FE84
:1014D00000EB800000EB800065686D00B0FBF5FA62
:1014E000FFF7B6FE00EB800000EB800065686D0042
:1014F000B0FBF5F5A7FB05356D094FF0640909FB55
:1015000015A5ED003235A7FB05356D096D0005F415
:10151000F8753544FFF79CFE00EB800000EB80007F
:1015200066687600B0FBF6F6FFF792FE00EB8000EF
:1015300000EB800063685B00B0FBF3F3A7FB0323C1
:101540005B0909FB13694FEAC90909F13209A7FBD5
:101550000937C7F342172F44C8F80870BDE8F08771
:10156000A037A00008560008001001401F85EB516D
:10157000FFF76EFE00EB800000EB80006568AD00B9
:10158000B0FBF5F5264FA7FB05356D092E01FFF7DA
:101590005FFE00EB800000EB80006568AD00B0FBF3
:1015A000F5FAFFF755FE00EB800000EB8000656860
:1015B000AD00B0FBF5F5A7FB05356D094FF06409EB
:1015C00009FB15A52D013235A7FB05356D0905F081
:1015D000F0053544FFF73CFE00EB800000EB800097
:1015E0006668B600B0FBF6F6FFF732FE00EB80004F
:1015F00000EB800063689B00B0FBF3F3A7FB0323C1
:101600005B0909FB13694FEA091909F13209A7FBC4
:101610000937C7F343172F44C8F80870BDE8F087AF
:101620001F85EB512DE9F04105460F4616469846B9
:10163000069C2B681B6837EA03030CBF01230023B9
:10164000B3421ED1B4F1FF3FF3D02CB1FEF7C8FF77
:10165000A0EB08008442ECD22A68D36823F4D0734C
:10166000D3602A68536923F001035361202385F86E
:10167000393085F83A30002385F838300320BDE84A
:10168000F0810020BDE8F081002800F0868010B5D0
:10169000044683692BB30368414A934210D0A2F5F4
:1016A0004C4293420CD002F58062934208D002F57E
:1016B0004C42934204D04FF481713A4800F0C6FB8B
:1016C000A3695BB3B3F5807F28D0B3F5007F25D045
:1016D000B3F5407F22D040F20311324800F0B6FB50
:1016E0001CE003682E4A934218D0A2F54C42934264
:1016F00014D002F58062934210D002F580629342CA
:101700000CD002F58062934208D002F54442934225
:1017100004D040F20711234800F098FBA3683BB1C6
:10172000B3F5805F04D040F209111E4800F08EFB33
:10173000E3693BB1B3F5004F04D04FF4857119480C
:1017400000F084FB94F839300BB3242384F839304B
:101750002268D36823F40053D3602046FFF78EFD40
:101760002268136923F4904313612268536923F0BC
:101770002A0353612268D36843F40053D3600020E6
:10178000E063202384F8393084F83A3010BD84F8BF
:101790003830204600F0F4FBD7E70120704700BF47
:1017A00000100140085600082DE9F04182B01E46A5
:1017B00090F83930DBB2202B04D00223184602B057
:1017C000BDE8F08104460D469046002955D0002A18
:1017D00055D090F83830012B01D10223EEE70123D8
:1017E00080F838300023C363212380F83930FEF7B6
:1017F000F7FE0746A4F82480A4F8268010E000969F
:101800003B46002280212046FFF70CFF002838D1FC
:1018100022682B88C3F3080353602369CBB90235D0
:10182000E38C9BB2BBB1E38C9BB2013B9BB2E384E4
:10183000A368B3F5805FE2D000963B46002280218A
:101840002046FFF7EFFEF0B923682A785A60013589
:10185000E6E70135E4E700963B46002240212046BA
:10186000FFF7E0FE034608B10323A7E7202284F830
:101870003920002284F83820A0E701239EE70123C5
:101880009CE703239AE7032398E72DE9F04182B010
:101890001E4690F83A30DBB2202B03D0022002B073
:1018A000BDE8F08104460D469046002958D0002A34
:1018B00058D090F83830012B01D10220EFE70123F6
:1018C00080F838300023C363222380F83A30FEF7D3
:1018D00087FE0746A4F82C80A4F82E801DE0009611
:1018E0003B46002220212046FFF79CFE00283BD1EA
:1018F000236933B923685B68C3F3080325F8023B07
:101900000BE023685B68DBB225F8013B05E0236848
:101910005B6803F07F032B700135E38D9BB2C3B18D
:10192000E38D9BB2013B9BB2E385A368B3F5805F77
:10193000D5D000963B46002220212046FFF772FEBC
:10194000A0B92369002BE2D123685B682B700135B5
:10195000E3E7202384F83A30002084F838009EE73B
:1019600001209CE701209AE7032098E7032096E7EF
:10197000FEE7000008B503460C4A12685AB10B4A4C
:101980001068033323F003030344094A934206D843
:10199000064A136008BD0749044A1160EFE700F0EA
:1019A00027FB0C2303604FF0FF3008BDE801002047
:1019B00000FC0120C802002001230360014B0B60E2
:1019C000704700BF040000200FB400B583B004AB23
:1019D00053F8042B01938021064801F069F8002890
:1019E00003DD0146034800F007F803B05DF804EB9F
:1019F00004B07047F00100204FF0FF307047000046
:101A000008B500F085F8024B024A9A6008BD00BF95
:101A100000ED00E000000008F8B504460D4617464A
:101A20001E462748FFF7D0FF21682648FFF7CCFF66
:101A300061682548FFF7C8FFA1682448FFF7C4FF85
:101A4000E1682348FFF7C0FF21692248FFF7BCFF88
:101A500061692148FFF7B8FFA1692048FFF7B4FF8B
:101A6000E1691F48FFF7B0FF1E48FFF7ADFF2946A9
:101A70001D48FFF7A9FF1D4CE16A1D48FFF7A4FFB1
:101A8000216B1C48FFF7A0FFE16B1B48FFF79CFF91
:101A900015F0800F0AD115F4004F0CD11748FFF74D
:101AA00093FF06991648FFF78FFFF8BD3946154892
:101AB000FFF78AFFEFE731461348FFF785FFEDE7B1
:101AC000385600084856000858560008685600085E
:101AD000785600088856000898560008A85600084E
:101AE000B8560008C8560008D456000800ED00E0BB
:101AF000E4560008F456000804570008345700085C
:101B00003C5700081457000824570008FEE700005F
:101B10000C4B1A6842F001021A60002199601A68A1
:101B200022F0847222F480321A60074A5A601A68DE
:101B300022F480221A60D9604FF00062034B9A6051
:101B4000704700BF003802401030002400ED00E074
:101B5000224B9B6803F00C03042B14D0082B16D0E7
:101B60001BB11F4A1F4B1A6002E01D4A1D4B1A6031
:101B70001A4B9B68C3F303131B4AD15C194A1368C1
:101B8000CB4013607047194A164B1A60F0E7134BAD
:101B90005A685B6803F03F0312F4800F13D0134AB6
:101BA000B2FBF3F20D4B5B68C3F3881303FB02F344
:101BB0000A4A5268C2F3014201325200B3FBF2F307
:101BC000084A1360D4E7064AB2FBF3F2034B5B68A2
:101BD000C3F3881303FB02F3EAE700BF00380240B7
:101BE0000024F4000C0000208057000840787D019C
:101BF00030B595B000240194224B1A6C42F080520B
:101C00001A641B6C03F080530193019B02941E4BDA
:101C10001A6842F480421A601B6803F480430293FE
:101C2000029B012308934FF4803309934FF4800300
:101C30000F93192310934FF4A87311930225129553
:101C4000072313930E9508A8FEF724FF0F23039391
:101C5000049505944FF4A05306934FF480530793D3
:101C6000052103A8FFF7B0F9FFF7D6FA074BA3FB4E
:101C700000308009FEF72EFD0420FEF741FD15B06F
:101C800030BD00BF0038024000700040D34D6210EC
:101C900008B5FEF783FCFFF7ABFFFFF759FF08BD60
:101CA00030B589B000240094174B1A6B42F0200223
:101CB0001A631A6B02F020020092009A01941A6BC8
:101CC00042F004021A631A6B02F004020192019AB4
:101CD00002941A6B42F001021A631B6B03F00103BA
:101CE0000293029B094D224640212846FEF7A8FE9A
:101CF00040230393012304930594069403A92846E3
:101D0000FEF722FD09B030BD003802400014024049
:101D1000FEE7000008B50B480B4B03604FF4165369
:101D2000436000238360C36003610C2242618361CE
:101D3000C361FFF7A9FC00B908BDAF210348FFF755
:101D4000E7FF00BF70020020001401409057000818
:101D500000B595B000230193234A116C41F08051E6
:101D60001164126C02F080520192019A02931F4A90
:101D7000116841F480411160126802F480420292BD
:101D8000029A0222089201220B9210220C920E93C8
:101D900008A8FEF77FFEF0B90F23039300210491FA
:101DA00005910691079103A8FFF70EF9B8B9FFF75F
:101DB00033FA0F4BA3FB00308009FEF78BFC0420A5
:101DC000FEF79EFC002211464FF0FF30FEF73EFC6E
:101DD00015B05DF804FB84210648FFF799FF9221B6
:101DE0000448FFF795FF00BF003802400070004034
:101DF000D34D62109057000808B5FEF7CFFBFFF7F0
:101E0000A7FFFFF74DFFFFF785FF012240210C4898
:101E1000FEF716FE0B4800F01BF807A3D3E90023DA
:101E2000094800F04BFD40210548FEF723FE4FF422
:101E30007A70FEF7DBFBF6E70000006066660240A2
:101E40000014024070020020A057000870470000F4
:101E500008B5054B1860054B186800230222194687
:101E6000806800F043FD08BDC00200201000002083
:101E7000022801D80120704708B500F0B9F80923FD
:101E80000360002008BD000010B5013801280CD8FF
:101E900014464FF0FF3392B207480068FFF784FC06
:101EA00008B1052010BD204610BD00F0A1F809239F
:101EB00003604FF0FF3010BDC0020020022801D89F
:101EC0000020704708B500F093F8092303604FF035
:101ED000FF3008BD08B558B94FF0FF33012208485C
:101EE0000068FFF7D2FC08B1052008BD012008BD3D
:101EF00000F07EF8092303604FF0FF3008BD00BFFB
:101F0000C002002008B5022804D84FF400534B60EB
:101F1000002008BD00F06CF809230360F8E70020FA
:101F2000704708B50320FEF773FB002211466FF0DF
:101F30000B00FEF78BFB002211466FF00A00FEF744
:101F400085FB002211466FF00900FEF77FFB00229F
:101F500011466FF00400FEF779FB002211466FF086
:101F60000300FEF773FB002211466FF00100FEF73D
:101F70006DFB002211464FF0FF30FEF767FB08BDF6
:101F80000268114B9A4200D0704700B587B0002319
:101F900000930E4B5A6C42F020025A645B6C03F0C3
:101FA00020030093009BC02301930223029301238B
:101FB0000393032304930823059301A90448FEF720
:101FC000C3FB07B05DF804FB001401400038024079
:101FD000000802407047FEE7FEE7FEE7FEE77047B5
:101FE0007047704708B5FEF7F3FAFEF7A8FB08BD87
:101FF000014B1868704700BF100000202DE9F04722
:1020000088B0002B149F1299109DDDF84CA01E463D
:1020100027F02007BBBF03F100431E4600232D23FA
:10202000462F14460B7004D0452F00D101350223F2
:1020300000E0032307AA049206AA03928DE828046D
:102040002246334600F0D0FD472F804602D1119B37
:10205000DB0726D5462F08EB050911D198F800308B
:10206000302B0AD1002200232046314603F00AFA21
:1020700018B9C5F10105CAF80050DAF800309944E2
:10208000002200232046314603F0FCF938B9302203
:10209000079B994505D9591C07911A70F8E7CDF8A7
:1020A0001C90079B159AA3EB08034046136008B0E9
:1020B000BDE8F087F7B503460029B8BF494203F8E9
:1020C000022BB4BF2D222B220929427020DD0DF1F5
:1020D000070217460A2691FBF6F506FB151130316B
:1020E000092D02F8011C02F1FF34294609DC3031C8
:1020F000023A04F8011CBA421C4604D3201A03B069
:10210000F0BD2246E7E712F8011B03F8011BF2E7D6
:1021100030221C46114404F8022B5970EEE70000EF
:102120002DE9F04F91B00C461A9F93461E46054686
:1021300001F0A8FC03680993184600F085FC002311
:102140000E933B680A90073323F0070303F108025C
:1021500094F81880D4F800A03A60D3E90023C4E9C9
:102160001223D4F84C90A76C29F000430B934FF046
:10217000FF32A64B0B99384603F0B6F9002840F021
:10218000F7814FF0FF32A14B0B99384603F08EF9DF
:10219000002840F0ED81002200233846494603F034
:1021A0007BF910B12D2384F84330994B994FB8F146
:1021B000470F98BF1F46032323612AF004032360BF
:1021C0004FF0000900965B460FAA2146284600F012
:1021D000DFF9013040F09A804FF0FF3011B0BDE8D8
:1021E000F08F6268531C0EA84AF480630DF1340E20
:1021F00041D106226260236000210DF13302019378
:1022000063680590029200933A464B460691CDF8DA
:102210001080CDF80CE02846FFF7F0FE08F0DF0351
:10222000472B074609D10D9BD81C02DB62689342FD
:1022300059DDA8F102085FFA88F8B8F1650F0D9929
:1022400036D80139424604F150000D91FFF732FFB4
:102250000E9A8318012A8146236102DC2268D10785
:1022600001D5013323619DF83330002BAAD02D23F3
:1022700084F84330A6E7B8F1670F02D0B8F1470FF2
:10228000B9D19AB1002106910DF133018DE80C000E
:10229000236005903A46CDF81080CDF80CE002910D
:1022A0004B462846FFF7AAFE0746BCE70122A1E7F6
:1022B000B8F1660F19D1002963680CDD216113B9EB
:1022C0002268D20702D501330B4423610D9BA3651D
:1022D0004FF00009C7E713B92268D00701D50233D0
:1022E000F3E70123F1E74FF067080D9B0E9A934245
:1022F00005DB22682361D107E8D50133E5E7002B30
:10230000D4BFC3F1020301231344DEE723685A0557
:1023100007D423693A4659462846B04701302AD1A6
:102320005AE7B8F1650F40F2DC8000220023D4E9BF
:10233000120103F0A7F8002839D00123364A594684
:102340002846B04701303FF447AF0E9B0D9A9A42A2
:1023500002DB2368D8070ED50A9B099A59462846FE
:10236000B04701303FF438AF002704F11A080E9B44
:10237000013B9F4211DB23689F0708D5002704F12A
:102380001908E3680F9A9B1A9F42C0F2E780E06841
:102390000F9B9842B8BF184620E701234246594692
:1023A0002846B04701303FF417AF0137DFE70D9BF8
:1023B000002B33DC0123184A59462846B047013028
:1023C0003FF40AAF0D9B23B90E9B13B92368D907BD
:1023D000D1D50A9B099A59462846B04701303FF4A7
:1023E000FBAE4FF0000804F11A090D9B5B429845C3
:1023F00001DB0E9B8EE701234A4659462846B0472B
:1024000001303FF4E9AE08F10108EEE7FFFFEF7F8E
:10241000BC570008C0570008CC5700080E9AA36D9F
:102420009A42A8BF1A46002A904636DC04F11A03E5
:102430004FF0000A28EAE8780B93D4F85890A9EBFB
:1024400008039A4531DB0E9B0D9A9A4238DB2368CC
:10245000DA0735D40E9B0D99A3EB0902A3EB010813
:102460009045A8BF9046B8F1000F31DC002728EA5C
:10247000E87804F11A090D9A0E9B9B1AA3EB080346
:102480009F42BFF678AF01234A4659462846B047D7
:1024900001303FF4A1AE0137EDE7134659463A4605
:1024A0002846B0470130C1D196E601230B9A594620
:1024B0002846B04701303FF48FAE0AF1010ABCE76D
:1024C0000A9B099A59462846B0470130C2D183E693
:1024D000434607EB090259462846B0470130C5D1AB
:1024E0007AE60E9A012A01DCDB0734D501233A464D
:1024F00059462846B04701303FF46EAE0A9B099A10
:1025000059462846B04701303FF466AE002200230A
:10251000D4E9120102F0B6FF50B1002704F11A0805
:102520000E9B013B9F420CDB4B4604F15002F2E64E
:102530000E9B7A1C013B59462846B0470130F3D127
:102540004AE60123424659462846B04701303FF447
:1025500043AE0137E4E701233A46ECE70123424664
:1025600059462846B04701303FF436AE013708E7F8
:102570003A464B463846494602F0B6FF00283FF43B
:1025800030AE014B014F12E6C4570008C85700088F
:102590002DE9F04791461F468A680B69DDF82080D7
:1025A0009342B8BF1346C9F8003091F8432006465D
:1025B0000C4612B10133C9F800302368990642BFB6
:1025C000D9F800300233C9F80030256815F0060547
:1025D00007D104F1190AE368D9F800209B1A9D423B
:1025E00029DB94F843302268003318BF0123920698
:1025F0002ED404F1430239463046C047013021D081
:102600002368E568D9F8002003F00603042B08BF0F
:10261000AD1AA36822690CBF25EAE575002593422F
:10262000C4BF9B1AED184FF000091A344D451BD159
:102630000020BDE8F0870123524639463046C047A6
:10264000013003D14FF0FF30BDE8F0870135C2E71C
:10265000E1185A1C302081F84300224494F84510B8
:1026600082F843100233C4E701232246394630463C
:10267000C0470130E6D009F10109D7E72DE9F04361
:1026800017460A7E85B06E2A984606460C460C9B75
:1026900001F1430E00F0BC801AD8632A2ED00AD86C
:1026A000002A00F0C880582A00F08A8004F1420510
:1026B00084F842202AE0642A01D0692AF6D12168F0
:1026C0001A6811F0800F23D0111D1960136827E0DC
:1026D000732A00F0B48008D86F2A2AD0702AE5D176
:1026E0000A6842F020020A6003E0752A21D0782AA5
:1026F000DCD1782284F845206E4964E01A6801F143
:102700004205111D1960136884F842300123A3E0CB
:1027100011F0400F02F104011960D7D0B2F9003076
:10272000002B03DA2D225B4284F8432062490A22FF
:1027300017E02068196810F0800F03D0081D18609A
:102740000B6806E010F0400F01F104001860F7D0AC
:102750000B8859496F2A14BF0A220822002084F8E6
:1027600043006568A560002DC0F29C80206820F0C1
:1027700004002060002B3FD1002D40F0958075466D
:10278000082A0BD12368DA0708D5236962689A42C0
:10279000DEBF302305F8013C05F1FF35AEEB050344
:1027A0002361CDF800803B4603AA21463046FFF75F
:1027B000EFFE013055D14FF0FF3005B0BDE8F0839A
:1027C00081F845203C492268186812F0800F00F11A
:1027D00004051D6001D0036802E05506FBD503889F
:1027E000D00744BF42F0200222601BB9226822F0C9
:1027F000200222601022B1E77546B3FBF2F002FB23
:102800001033CB5C05F8013D03460028F5D1B7E74E
:1028100008681A68496910F0800F04D0101D18600C
:102820001368196007E010F0400F02F1040018600F
:102830001368F6D01980002323617546B1E71A6842
:10284000111D1960156862680021284601F098F989
:1028500008B1401B606063682361002384F8433043
:102860009FE723692A4639463046C0470130A2D047
:1028700023689B0707D5002504F11909E368039A2B
:102880009B1A9D4205DBE068039B9842B8BF18463F
:1028900093E701234A4639463046C04701308AD083
:1028A0000135EBE7002BA7D10B7884F8423004F117
:1028B000420565E7DF570008CE5700080FB40A4B02
:1028C00013B51C6824B1A36913B9204601F050F870
:1028D00005AB049AA1680193204601F0B7FE02B04F
:1028E000BDE8104004B07047100000202DE9F74308
:1028F0001D46514B1E6804460F46904626B1B369EB
:1029000013B9304601F034F84C4B9C4252D17468F4
:10291000B8F1020F06D0B8F1010F00F28980002D46
:10292000C0F286802146304600F0B8FF616B41B1AD
:1029300004F14403994202D0304601F063FC0023C5
:1029400063630023A3616360A3891B0603D5216928
:10295000304601F057FCA38923F44A6323F00303B4
:10296000B8F1020FA3815DD001AB6A462146304623
:1029700001F096F8A3891843A0812DBB009D28463D
:1029800001F0F2F8074600284ED1DDF80090A94585
:102990003CD14FF0FF30A38943F00203A381002311
:1029A000A36004F14703236023610123636103B043
:1029B000BDE8F083224B9C4201D1B468A8E7214BCB
:1029C0009C4208BFF468A3E7002FD8D0B36913B9BD
:1029D000304600F0CDFFB8F1010F08BFA389276092
:1029E00004BF43F00103A381A389276113F008000A
:1029F00065611BD013F0010018BF6D424FF000035A
:102A00001DBFA360A5611846A560D0E7484601F048
:102A1000ABF807460028BCD0A38943F08003A3810C
:102A20004D46D3E70020B6E7A946F5E7A060BEE72C
:102A30004FF0FF30BBE700BF100000202058000817
:102A40004058000800580008034613F8012B002ADC
:102A5000FBD1181A0138704730B5141E05469BB0DB
:102A6000184605DA8B232B604FF0FF301BB030BDCA
:102A70004FF40273ADF80C3014BF04F1FF3323465A
:102A8000029305934FF6FF7300910491ADF80E3059
:102A900002461E9B6946284601F0BCFC431CBCBF95
:102AA0008B232B60002CE1D0009B00221A70DDE705
:102AB00007B5009313460A46014603480068FFF72E
:102AC000CBFF03B05DF804FB100000202DE9F74FA9
:102AD00003690C699C42804600F38280013C01F14D
:102AE00014074FEA840E00F1140657F8245056F8E4
:102AF000240006EB0E03013507EB0E090193B0FB32
:102B0000F5F595B34FF0000A3846B446D34650F871
:102B1000042B93B205FB03A34FEA134A9BB2ABEB22
:102B20000303120CBCF800B005FB02A213FA8BF3EE
:102B30004FEA124A1FFA82FBDCF80020CBEB12426C
:102B400002EB23429BB243EA024381454FEA224B08
:102B50004CF8043BDBD256F80E3033B9019B043BF2
:102B60009E421A4630D3C8F81040404601F075FA2C
:102B7000002825DB013530464FF0000E57F8042BB6
:102B8000D0F800C093B2AEEB0303120C13FA8CF32F
:102B9000C2EB1C4202EB23429BB243EA0243B9451B
:102BA0004FEA224E40F8043BE8D256F8242006EBC8
:102BB00084032AB9043B9E421A460BD3C8F810403E
:102BC000284603B0BDE8F08F1268043B002ACAD142
:102BD000013CC5E71268043B002AEFD1013CEAE75B
:102BE0000020EEE7000000002DE9F04F466A95B0A6
:102BF0000446219DCDE902233EB9102000F0B4FF28
:102C00006062466086600660C660636A196851B19A
:102C10005A684A60012393408B60204601F047F8D0
:102C2000636A00221A60039B002BBFBF01232B6045
:102C3000039B23F00043B2BF039300232B60DDF816
:102C40000C90A94B33EA09031BD1209A42F20F736F
:102C50001360029B23B9C9F31300002800F081859B
:102C6000229B53B9A14B21E0A14B06930833229A32
:102C70001360069815B0BDE8F08F9C4B06930333A4
:102C8000F5E7DDE90267002200233046394602F00D
:102C9000F9FB804660B1209A01231360229B002B30
:102CA00000F05C85934B229A1360013B0693E0E7AA
:102CB00012AB019313AB009332463B46204601F022
:102CC00044FAC9F30A558246002D7CD0C7F313039A
:102CD00043F07F51304641F44011A5F2FF35CDF865
:102CE00040800022844B01F0B1FF79A3D3E9002397
:102CF00002F060F978A3D3E9002301F0A9FF0646AA
:102D000028460F4602F0F0F875A3D3E9002302F03D
:102D100051F902460B463046394601F099FF064606
:102D20000F4602F0F7FB0022834600233046394667
:102D300002F0B2FB58B1584602F0D6F802460B46F4
:102D40003046394602F09EFB08B90BF1FF3BBBF160
:102D5000160F57D8694901EBCB01DDE90223D1E910
:102D6000000102F0B7FB00284ED00BF1FF3B00231F
:102D70000D93129B5D1B6B1E079343BF0023C5F190
:102D8000010807934FF00008BBF1000F3EDB079BE3
:102D9000CDF830B05B440793002308931E9B092BAA
:102DA00000F2B080052BC4BF043B1E931E9BA3F111
:102DB0000203CCBF00260126032B00F2AF80DFE820
:102DC00003F083852D77139B129D1D4405F232433A
:102DD000202B11DD029A05F21240C3F1400322FAC2
:102DE00000F009FA03F3184302F06EF80123A1F191
:102DF000F871013D109374E7C3F12000029B03FAC0
:102E000000F0F1E70123B3E70D90B2E7CBF1000347
:102E100008930023A8EB0B080C93BFE70123099349
:102E20001F9B002B7DDD04939946656A00226A6032
:102E3000042101F114029A4278D96968204600F011
:102E400002FF636A28601B680693B9F10E0F00F257
:102E5000EE80002E00F0EB80DDE90223BBF1000FD5
:102E6000CDE90E2377DD254A0BF00F0302EBC303F8
:102E7000D3E900234FEA2B16F006CDE90A235AD5F1
:102E80001F4BDDE90E01D3E9082302F0BDF9CDE9BE
:102E9000020106F00F060325194F002E4DD1DDE982
:102EA0000A23DDE9020102F0AFF9CDE902016CE08D
:102EB000012309931F9B5B4403F1010904934B46D3
:102EC000012BB8BF0123B0E70023A8E70023F0E7F8
:102ED00061436F63A787D23FB3C8608B288AC63F20
:102EE000FB799F501344D33F0000F07FF95700084F
:102EF000F0570008CD5700080000F83F8858000838
:102F000060580008012600231E9309964FF0FF33F6
:102F100004939946002212231F9286E70123099306
:102F2000F4E70123049399461A46F5E76A680132EB
:102F30006A6049007DE70225AEE7F10708D5DDE9C3
:102F40000A01D7E9002302F035F8CDE90A0101357D
:102F500076100837A1E700F0A580CBF10006A34B5F
:102F6000A34F06F00F0203EBC203D3E90023DDE910
:102F70000E0102F01FF8CDE90201361100230225EF
:102F8000002E40F08480002B8FD10D9B002B00F091
:102F90008B80DDE90223CDE90A23DDE90A01002265
:102FA000944B02F079FA00287ED0B9F1000F7BD063
:102FB000049B002B37DD00228F4BDDE90A0101F075
:102FC000F9FFCDE90201049E0BF1FF3701352846D8
:102FD00001F08AFFDDE9022301F0ECFF874B0022BC
:102FE00001F036FECDE90A010B9BA3F150750B955C
:102FF000002E5CD10022824BDDE9020101F026FEA9
:103000000A9A2B46CDE9020102F064FA002840F04A
:10301000F7820A9A05F10043DDE9020102F03CFA69
:10302000002840F0EB82DDE90E23CDE90223139B5B
:10303000002BC0F25181BBF10E0F00F34D816B4BA1
:1030400003EBCB03D3E90023CDE904231F9B002B23
:1030500080F2DA80B9F1000F00F3D68040F0CD8223
:103060000022674BDDE9040101F0A4FFDDE9022342
:1030700002F026FA4E464F46002840F0A482069BF6
:10308000069A5D1C312313700BF1010B9FE2F207CE
:1030900005D5D7E9002301F08DFF01350123761016
:1030A00008376DE7022570E75F464E468FE7069AC0
:1030B0004E4B32441192099A711E002A48D003EBFC
:1030C000C103D3E9002300204E4902F09DF8DDE959
:1030D0000A2301F0BBFDCDE90A01069DDDE90201ED
:1030E00002F018FA064601F0FFFE02460B46DDE943
:1030F000020101F0ABFD303605F8016BDDE90A2372
:10310000CDE9020102F0C8F9002865D1DDE902230A
:103110000020384901F09AFDDDE90A2302F0BCF9EC
:10312000002840F0B980119B9D423FF47CAF002203
:10313000314BDDE90A0101F03DFF0022CDE90A0132
:103140002D4BDDE9020101F035FFCDE90201C5E7B4
:1031500003EBC101D1E90001DDE90A2301F02AFFF7
:10316000CDE90A01069DDDE9020102F0D3F9064628
:1031700001F0BAFE303602460B46DDE9020101F0ED
:1031800065FD05F8016B119BAB42CDE902014FF0E3
:10319000000225D11B4BDDE90A0101F059FD024671
:1031A0000B46DDE9020102F095F9002874D1DDE952
:1031B0000A230020134901F049FD02460B46DDE9D0
:1031C000020102F069F900283FF42DAF15F8013C27
:1031D000302B05F1FF3201D0BB464CE01546F5E738
:1031E000054B01F0E7FECDE90201BCE78858000875
:1031F000605800080000F03F0000244000001C4020
:10320000000014400000E03FDDE90267069DDDE9B3
:1032100004233046394601F0F7FF02F07BF980467F
:1032200001F062FEDDE9042301F0C4FE02460B4614
:103230003046394608F1300601F008FD05F8016B0B
:10324000069EAE1BB14502460B4638D101F000FD8B
:1032500006460F4602460B46DDE9040102F01CF962
:10326000C8B932463B46DDE9040102F00BF910B162
:1032700018F0010F0FD15146204600F018FD002331
:10328000209A2B700BF101031360229B002B3FF45B
:10329000F0AC1D60EDE45F4615F8012C392A05F10C
:1032A000FF3306D1069A9A4207D1302313700137B3
:1032B00013461A7801321A708EE71D46ECE7002299
:1032C000B44B01F077FE0022002306460F4602F0C1
:1032D000D9F800289BD0CEE7099A002A00F029816E
:1032E0001E9A012A00F30E81109A002A00F006812E
:1032F00003F23343089E4546079A01211A442046AB
:103300009844079200F073FD0746002D0BDD079BE4
:10331000002B08DDAB42079AA8BF2B46A8EB030899
:10332000ED1AD31A0793089BFBB1099B002B00F001
:103330000481002E11DD39463246204600F0EEFDB4
:10334000524601460746204600F05AFD51460A9073
:10335000204600F0ACFC0A9B9A46089B9A1B04D0BE
:103360005146204600F0DAFD82460121204600F059
:103370003EFD0C9B002B064640F3E1801A460146B9
:10338000204600F0CBFD1E9B012B064640F3DA8061
:1033900000230893336906EB8303186900F0D9FC16
:1033A000C0F12000079B184410F01F0000F0F080CF
:1033B000C0F12003042B40F3E280079BC0F11C0006
:1033C0008044054403440793B8F1000F05DD5146DE
:1033D0004246204600F0F0FD8246079B002B05DDAB
:1033E00031461A46204600F0E7FD06460D9B002BAD
:1033F00000F0D2803146504600F02FFE002880F2C7
:10340000CB80002351460A22204600F067FC099B2E
:103410000BF1FF3B8246002B00F0AA8100233946C6
:103420000A22204600F05AFC049B002B074603DCCE
:103430001E9B022B00F3B880002D05DD39462A467D
:10344000204600F0B9FD0746089B002B00F01081D4
:103450007968204600F0F7FB3A690232054692008F
:1034600007F10C010C3000F0DBFB0122294620465D
:1034700000F0A2FD029BDDF81880079703F001031E
:103480000746089331465046FFF720FB079905464B
:1034900000F13009504600F0E0FD3A460290314616
:1034A000204600F0F4FDC3680246002B40F0E280A5
:1034B00001460990504600F0D0FD099A0346114696
:1034C0002046099300F0F3FB099B002B40F0D480C9
:1034D0001E9A002A40F0D080089A002A40F0CC8042
:1034E000B9F1390F00F0E880029B002B01DD05F1F6
:1034F000310908F1010588F800906AE0129BC3F1D8
:103500003603F7E6089B09F1FF36B342BFBF089BBD
:103510000896F21A0C9BB7BF9B189E1B0C930026B3
:10352000B9F1000FB9BFA8EB0905002345464B468A
:10353000E2E6089E099F4546E7E6089A10E71E9BCB
:10354000012B18DC029BB3B9039BC3F31303A3B98C
:10355000039B23F000431B0D1B052BB1079B01337D
:10356000079308F10108012308930C9B002B7FF4BB
:1035700011AF012016E70023F6E7029BF4E73FF4C2
:1035800023AF079A1C331A4498441D4413461AE784
:103590000346F6E700002440B9F1000F33DC1E9B20
:1035A000022B30DDCDF81090049B63B93146052223
:1035B000204600F093FB01460646504600F04DFDC4
:1035C00000283FF75CAD1F9B069D6FEA030B0023AD
:1035D00007933146204600F06AFB002F3FF44BAEC4
:1035E000079B2BB1BB4203D01946204600F05FFB7E
:1035F0003946204600F05BFB3DE600263746E2E711
:10360000BB4637463BE5099BCDF81090002B7FF475
:1036100013AF069D31465046FFF758FA00F13009C6
:1036200005F8019B069B049AEB1A9A4200F38380EB
:10363000069B012AACBF9B180133984600230793D1
:1036400051460122204600F0B7FC3146824600F088
:1036500004FD002835DC02D119F0010F31D14546B7
:1036600015F8013C302B05F1FF32B2D11546F7E7D2
:103670003846FFE6012322E7029A002A04DB29D11B
:103680001E9A3ABB089A2ABB002B7FF732AF5146ED
:103690000122204600F090FC3146824600F0DDFC1D
:1036A000002805DC7FF425AF19F0010F3FF421AFAE
:1036B000B9F1390F7FF41BAF392388F8003008F1D6
:1036C0000108454615F8013C392B05F1FF323AD087
:1036D00001333FE0002B08F1010505DDB9F1390F99
:1036E000EAD009F1010906E7069B049A05F8019C56
:1036F000EB1A9342A846A3D0514600230A22204643
:1037000000F0ECFA079B0799BB4282464FF000039A
:103710004FF00A02204604D100F0E0FA0790074675
:10372000B0E600F0DBFA002307900A223946204673
:1037300000F0D4FAF3E7514600230A22204600F0B5
:10374000CDFA824666E7069B934205D1069A0BF1B5
:10375000010B312313703CE71546B3E7094BFFF724
:10376000A5BA229B002B7FF47FAA074BFFF79EBAD6
:10377000049B002B3FF74DAF1E9B022B7FF749AFF9
:1037800012E700BFCC570008F05700088A892DE9DE
:10379000F041054610070C465AD44B68002B05DC57
:1037A0000B6C002B02DC0020BDE8F081E66A002EE5
:1037B000F9D0002312F480522F682B6033D0606D53
:1037C000A3895A0705D56368C01A636B0BB1236CD4
:1037D000C01A00230246E66A216A2846B047431C05
:1037E000A38906D129681D294BD82B4ACA40D60780
:1037F00047D500226260D9042269226004D5421CA8
:1038000001D12B6803B96065616B2F600029CAD0B4
:1038100004F14403994202D0284600F0F3FC002052
:103820006063BDE8F081216A01232846B047411C4E
:10383000C6D12B68002BC3D01D2B01D0162B01D174
:103840002F60B0E7A38943F04003A381BDE8F08176
:103850000F69002FA7D093070E6808BF4B690F6050
:1038600018BF0023A6EB07088B60B8F1000F9ADDA4
:1038700043463A46216AA66A2846B047002807DC34
:10388000A38943F04003A3814FF0FF30BDE8F081EE
:103890000744A8EB0008E8E70100402038B50B69B1
:1038A00005460C46DBB118B183690BB900F060F82E
:1038B0000C4B9C4209D16C68B4F90C307BB12146A9
:1038C0002846BDE83840FFF761BF074B9C4201D155
:1038D000AC68F1E7054B9C4208BFEC68ECE70020C0
:1038E00038BD00BF205800084058000800580008A4
:1038F000014900F0A9B800BF9D380008002310B5A9
:10390000044603604360836081814366C281036132
:1039100043618361194608225C3000F08CF9054B45
:103920006362054BA362054BE362054B246223638C
:1039300010BD00BF99480008BB480008F3480008C4
:103940001749000870B54A1E682555430E4605F113
:10395000740100F0A5FC044640B1002180E842005B
:103960000C30A06005F1680200F065F9204670BDDA
:10397000836910B5044633BB8364C3640365124B8B
:10398000124A1B688262984204BF0123836100F0DF
:103990001FF86060204600F01BF8A060204600F091
:1039A00017F80022E06004216068FFF7A7FF0122FA
:1039B0000921A068FFF7A2FF02221221E068FFF7A9
:1039C0009DFF0123A36110BDB8570008F13800081E
:1039D000F8B51C4B1E68B369074613B93046FFF7AC
:1039E000C7FF4836B4687368013B03D5336833B109
:1039F0003668F7E7B4F90C506DB16834F4E7042188
:103A00003846FFF79FFF30600028F1D10C233B6060
:103A100004462046F8BD4FF6FF73E3810123A381DE
:103A200065662560A560656025616561A561082200
:103A3000294604F15C0000F0FEF86563A563A56407
:103A4000E564E6E7B85700082DE9F8438046894663
:103A500000F14804002614B93046BDE8F883A56893
:103A60006768013F01D52468F5E7AB89012B07D9C9
:103A7000B5F90E30013303D029464046C847064306
:103A80006835EEE7044B1B68186A044B002808BF32
:103A90001846F030704700BF10000020740000206E
:103AA00070B50E46B1F90E10002990B014461D46AF
:103AB00007DA00232B60B3891A0610D44FF4806311
:103AC0000EE001AA01F00EF80028F2DB029A02F4DF
:103AD0007042A2F500535A425A412A60EEE7402351
:103AE0000020236010B070BD8B8973B59D0706461A
:103AF0000C4607D504F1470323602361012363616A
:103B000002B070BD01AB6A46FFF7CAFF00990546D7
:103B1000304600F0C5FB48B9B4F90C309A05EFD433
:103B200023F0030343F00203A381E3E70D4BB362E9
:103B3000A389206043F08003A381009B6361019B04
:103B400020615BB1B4F90E10304600F0DDFF28B102
:103B5000A38923F0030343F00103A381A3891D4339
:103B6000A581CDE7F1380008024B0146186800F046
:103B700097BB00BF10000020000000000000000004
:103B800001F0FF01102A2BDB10F0070F08D010F80E
:103B9000013B013A8B422DD010F0070F42B3F6D112
:103BA000F0B441EA012141EA014122F007047FF02B
:103BB00000070023F0E80256083C85EA010586EA82
:103BC000010685FA47F5A3FA87F586FA47F6A5FABE
:103BD00087F68EB9EED1F0BC01F0FF0102F00702CA
:103BE00032B110F8013B013A83EA010313B1F8D175
:103BF0000020704701387047002D06BF3546033856
:103C0000073815F0010F07D1013015F4807F02BF8E
:103C1000013015F4C03F0130F0BC0138704700BFDF
:103C200010B5431E0A44914200D110BD11F8014B5A
:103C300003F8014FF7E702440346934200D170476F
:103C400003F8011BF9E770B5456A04460E463DB915
:103C50001020FFF789FF6062456085600560C560E0
:103C6000656AEB6883B1636ADB6853F82600B8B90C
:103C7000012101FA06F56A1D9200204600F0B4FA0F
:103C800060B1466085600EE021220421204600F0EC
:103C9000ABFA636AE860DB68002BE4D1002070BDFA
:103CA000026843F8262000230361C36070BD70B52D
:103CB000446A06460D463CB91020FFF755FF706276
:103CC000446084600460C4603DB1736A6A68DB6804
:103CD00053F82210296043F8225070BD2DE9F041BD
:103CE0000D691F4606460C4601F1140E0023DEF84E
:103CF000000081B202FB01710F0C000C02FB00708E
:103D000089B2013301EB00419D424FEA10474EF862
:103D1000041BECDCD7B1A3689D4212DB616830461E
:103D20000131FFF790FF2269023204F10C01804655
:103D300092000C30FFF774FF21463046FFF7B7FFC3
:103D4000444604EB850301355F6125612046BDE8EB
:103D5000F081020C12040346B2B90304102013F0E0
:103D60007F4F04BF1B02083013F0704F04BF1B01CC
:103D7000043013F0404F04BF9B000230002B06DBE1
:103D80005B0003D5013070470020E8E72020704732
:103D9000036813F0070201460BD0DA0723D4980713
:103DA00049BF5B089B0801200B605CBF0B600220D1
:103DB000704798B2A8B91B0C102013F0FF0F04BF76
:103DC0001B0A08301A0704BF1B0904309A0704BFF6
:103DD0009B080230DA0702D45B0806D001300B6082
:103DE00070471046E9E7002070472020704710B563
:103DF0000C460121FFF727FF01224461026110BD3B
:103E00002DE9F74F14460A6923699A42B8BF0B4659
:103E10008946BCBFA1461C46D9F81070D4F810A042
:103E2000D9F80830D9F8041007EB0A069E42C8BF3B
:103E30000131FFF708FF00F1140505EB86082B465A
:103E40000022434516D304F1140209F1140102EBD8
:103E50008A0301EB87070193019C944213460CD817
:103E6000002E03DD58F8043D002B54D0066103B04A
:103E7000BDE8F08F43F8042BE3E7B3F800A0043269
:103E8000BAF1000F20D0AE4689464FF0000C59F829
:103E9000044BBEF800B0A3B20AFB03B34FEA144BC5
:103EA000DEF8004063444FEA144C0AFB0BC404EBF9
:103EB00013449BB243EA04434F454FEA144C4EF877
:103EC000043BE4D8CEF800C032F8029CB9F1000FF0
:103ED0001FD02B68AE468C464FF0000ABCF800405D
:103EE000BEF802B009FB04B4A2449BB243EA0A4301
:103EF0004EF8043B5CF8043BBEF800401B0C09FB89
:103F0000034303EB1A4367454FEA134AE6D8CEF85A
:103F100000300435A0E7013EA2E700002DE9F84398
:103F2000154612F0030206460F4607D0013A214C0F
:103F3000002354F82220FFF7D1FE0746AD1035D0FC
:103F4000746A3CB91020FFF70FFE70624460846011
:103F50000460C460D6F82480D8F808404CB940F218
:103F600071213046FFF743FF0023C8F808000446DC
:103F700003604FF00008EB070AD539462246304669
:103F8000FFF73EFF394681463046FFF790FE4F4629
:103F90006D100BD0206838B9224621463046FFF715
:103FA0002FFF2060C0F800800446E4E73846BDE8F3
:103FB000F88300BF505900082DE9F0470C464FEA3E
:103FC000621A236949680AEB0309A3680746164683
:103FD00009F10105AB4231DB3846FFF734FE002220
:103FE000804600F11403114652452ADB20692AEA73
:103FF000EA7A04F1140116F01F0203EB8A0301EBC5
:10400000800E22D0C2F1200C00200E689640304372
:1040100043F8040B51F8040B8E4520FA0CF0F4D849
:10402000186008B109F10205013D3846C8F8105082
:104030002146FFF73CFE4046BDE8F08701315B00BA
:10404000C8E743F822100132CEE7043B51F8042BB5
:1040500043F8042F8E45F9D8E6E703690A699B1AED
:1040600030B50CD19200143014318418114454F836
:10407000045D51F8042D954203D005D30123184661
:1040800030BDA042F3D3FAE74FF0FF33F7E72DE955
:10409000F0470D460746114628461446FFF7DDFF58
:1040A000061E08D131463846FFF7CDFD01230361D6
:1040B0004661BDE8F087A4BF23462C4638466168B8
:1040C000A6BF1D4600260126FFF7BDFD2B69C66071
:1040D000266905F1140904F1140202EB860709EBC5
:1040E000830800F114054FF0000C52F804AB59F8A6
:1040F000044B1CFA8AF1A3B2C91A230CC3EB1A436E
:1041000003EB214389B24FEA234CC84541EA0343FC
:10411000964645F8043BE8D8BE4505D355F8043D1E
:104120008BB10661BDE8F0875EF8041B1CFA81F3D1
:104130001A1402EB11429BB243EA02434FEA224CAB
:1041400045F8043BE8E7013EE8E72DE9F3410121AA
:104150001C469046089E099DFFF775FDC4F31302A7
:10416000C4F30A54074634BB0192B8F1000F27D0BC
:1041700002A840F8088DFFF70BFE0099F0B1019AF4
:10418000C0F1200302FA03F30B43C2407B610192AA
:10419000019BBB61002B14BF022101213961C4B115
:1041A000A4F2334404443460C0F13500286038463A
:1041B00002B0BDE8F08142F48012D5E77961E7E70B
:1041C00001A8FFF7E5FD019B7B61012139612030EA
:1041D000E5E707EB8103A0F2324030601869FFF792
:1041E000B8FDC0EB4110E1E738B502FB01F4214610
:1041F00000F056F8054618B122460021FFF71BFDD6
:10420000284638BD38B50546002945D051F8043C4C
:104210000C1F002BB8BFE41800F0C4FC1F4A136841
:10422000104633B9636014602846BDE8384000F09A
:10423000BABCA3420CD921686218934204BF1A6821
:104240005B68636004BF521822600460ECE71346A9
:104250005A680AB1A242FAD919685818A0420BD17B
:1042600020680144581882421960DDD110685268F4
:104270005A6001441960D7E702D90C232B60D3E7B9
:10428000206821188A4204BF11685268626004BF26
:10429000091821605C60C7E738BD00BFB00200208C
:1042A00070B5CD1C25F0030508350C2D38BF0C2545
:1042B000002D064601DBA94203D90C233360002000
:1042C00070BD00F06FFC234A1468214691B9224C5E
:1042D00023681BB9304600F0CFFA206029463046EB
:1042E00000F0CAFA431C26D10C233360304600F09C
:1042F0005AFCE4E70B685B1B1AD40B2B0FD90B603D
:10430000CD50CC18304600F04EFC04F10B00231DBC
:1043100020F00700C31A1BD05A42E25070BD8C42F5
:104320000DBF63684B686360136018BF0C46E9E714
:104330000C464968CAE7C41C24F00304A04205D017
:10434000211A304600F098FA0130CDD02560D9E727
:1043500070BD00BFB0020020B40200202DE9F0477C
:104360008E689E4282460C469146984635D88A8988
:1043700012F4906F31D0256809696F1A65690223BC
:1043800005EB450595FBF3F508F101033B449D4220
:1043900038BF1D46530531D52946FFF781FF064634
:1043A00050B90C23CAF80030A38943F04003A3811D
:1043B0004FF0FF30BDE8F0873A462169FFF730FC47
:1043C000A38923F4906343F08003A3812661656190
:1043D0003E44ED1B2660A5604646464528BF46463E
:1043E00032464946206800F0C3FBA3689B1BA360CC
:1043F00023681E4426600020BDE8F0872A4600F0AE
:10440000D3FB06460028E1D121695046FFF7FAFEAA
:10441000C7E700002DE9F04F9DB0804603938B89DC
:104420001C060D4616460FD50B696BB94021FFF7E8
:1044300037FF2860286128B90C23C8F800304FF0F6
:10444000FF30C5E040236B610023099320238DF8E2
:10445000293030238DF82A304FF0010B37463C4687
:1044600014F8013B002B3CD1B7EB060A0BD05346A6
:10447000324629464046FFF771FF013000F0A38025
:10448000099B534409933B78002B00F09C80002348
:104490004FF0FF3204930793059206938DF8533043
:1044A0001A93052221785048FFF76AFB671C049B8A
:1044B000D8B9D90644BF20228DF853201A0744BF2B
:1044C0002B228DF8532022782A2A16D0079A002111
:1044D0000A20274601343B78303B092B51D9C9B11A
:1044E00011E0252BC0D02746B9E73F4A801A0BFAC6
:1044F00000F0184304903C46D3E7039A111D12685C
:104500000391002A01DB079204E0524243F00203C8
:10451000079204933B782E2B0ED17B782A2B07F140
:10452000010132D1039B1A1D1B680392002BB8BFF7
:104530004FF0FF33023705932C4C39780322204685
:10454000FFF71EFB38B14023001B03FA00F0049B69
:10455000034304930137397825488DF82810062243
:104560007E1CFFF70DFB002835D0224BFBB9039BC7
:10457000073323F0070308330393099B4B44099344
:104580006CE700FB02320121A3E7002305931846E4
:104590000A240F4601313A78303A092A03D9002B10
:1045A000CAD00590C8E704FB00200123F1E703AB64
:1045B00000932A46104B04A94046FDF7B1FDB0F127
:1045C000FF3F8146D9D1AB895B063FF538AF0998EB
:1045D0001DB0BDE8F08F03AB00932A46064B04A93B
:1045E0004046FEF74BF8EAE75C59000862590008BC
:1045F00066590008212100085D4300089368013BCB
:10460000002B10B4936008DA9469A34202DBCBB2AA
:104610000A2B02D110BC00F083B91368581C10603B
:104620001970C8B210BC7047F8B506460F4614465C
:10463000D518AC4201D1002007E03A4614F8011B1E
:104640003046FFF7DBFF431CF3D1F8BD2DE9F04FF7
:104650009DB00C4617460393064618B183690BB903
:10466000FFF786F97C4B9C4257D17468A3891807E1
:104670005DD52369002B5AD00023099320238DF8A0
:10468000293030238DF82A304FF0010BB8464546CB
:1046900015F8013B002B55D1B8EB070A0BD0534658
:1046A0003A4621463046FFF7BFFF013000F0C48094
:1046B000099B5344099398F80030002B00F0BC800C
:1046C00000234FF0FF3204930793059206938DF871
:1046D00053301A93052229786048FFF751FA05F103
:1046E0000108049B002831D1D90644BF20228DF84F
:1046F00053201A0744BF2B228DF853202A782A2AE8
:104700002CD0079A00210A20A846013598F80030DD
:10471000303B092B6DD971B326E0514B9C4201D13E
:10472000B468A3E74F4B9C4208BFF4689EE721465C
:10473000304600F059F900289ED04FF0FF301DB0F0
:10474000BDE8F08F252BA7D0A846A0E7434A801AE2
:104750000BFA00F0184304904546BBE7039A111D7D
:1047600012680391002A01DB079204E0524243F0F1
:1047700002030792049398F800302E2B10D198F87A
:1047800001302A2B08F1010137D1039B1A1D1B6848
:104790000392002BB8BF4FF0FF3308F102080593D6
:1047A000314D98F8001003222846FFF7E9F940B18F
:1047B0004023401B03FA00F0049B0343049308F1D9
:1047C000010898F8001029488DF82810062208F1F1
:1047D0000107FFF7D5F9002834D0254B03BB039B15
:1047E000073323F0070308330393099B4B440993D2
:1047F0004CE700FB0232012186E7002305931846AF
:104800000A258846013198F80020303A092A03D950
:10481000002BC5D00590C3E705FB00200123F0E77E
:1048200003AB00932246134B04A93046FDF778FCF6
:10483000B0F1FF3F8146D8D1A3895B063FF57DAF3C
:1048400009987CE703AB009322460A4B04A9304643
:10485000FDF714FFECE700BF205800085C59000882
:1048600040580008005800086259000866590008BE
:10487000212100082946000838B5064C00230546CA
:1048800008462360FDF776F8431C02D1236803B184
:104890002B6038BDBC02002010B50C46B1F90E10DB
:1048A00000F0A8F90028ABBF636DA3891B1823F49F
:1048B0008053ACBF6365A38110BD2DE9F0411F4655
:1048C0008B89DB0505460C46164605D502230022DA
:1048D000B1F90E1000F028F9A389B4F90E1023F4F1
:1048E0008053A38132463B462846BDE8F04100F0A4
:1048F00069B810B50C46B1F90E1000F015F9431C5B
:10490000A38915BF606523F4805343F48053A381CA
:1049100018BFA38110BDB1F90E1000F0D3B800008C
:10492000F8B50E461446054618B183690BB9FFF772
:104930001FF8214B9C422AD16C68A369A360A3890C
:104940001A072ED5236963B323692068C01A6369E7
:10495000F6B29842374604DB21462846FEF79EFF12
:1049600028BBA368013BA36023685A1C22601E7009
:1049700063690130984204D0A389DB0719D50A2E58
:1049800017D121462846FEF789FF90B10FE00B4B67
:104990009C4201D1AC68D0E7094B9C4208BFEC684F
:1049A000CBE72146284600F01FF80028CCD04FF076
:1049B000FF373846F8BD00BF2058000840580008AF
:1049C0000058000838B5074C054608461146002235
:1049D00022601A46FDF758FA431C02D1236803B13E
:1049E0002B6038BDBC020020324B70B51D680646F6
:1049F0000C4625B1AB6913B92846FEF7B9FF2E4B1B
:104A00009C420FD16C68B4F90C309AB215072CD4C3
:104A1000D00611D40922326043F04003A3814FF045
:104A2000FF3070BD254B9C4201D1AC68EBE7244BB5
:104A30009C4208BFEC68E6E7510712D5616B41B1B3
:104A400004F14403994202D03046FFF7DBFB002318
:104A50006363A38923F02403A38100236360236994
:104A60002360A38943F00803A38123694BB9A38979
:104A700003F42073B3F5007F03D021463046FFF7DF
:104A800033F8A28912F001030CD00023A3606369FC
:104A90005B42A361236953B9B4F90C3013F0800071
:104AA000BAD170BD920758BF6369A360F2E70020D6
:104AB000F7E700BF10000020205800084058000809
:104AC0000058000838B5064C002305460846236008
:104AD000FDF7F4F9431C02D1236803B12B6038BD04
:104AE000BC02002038B5074C002305460846114695
:104AF0002360FDF707FA431C02D1236803B12B6042
:104B000038BD00BFBC02002038B5064C0023054666
:104B100008462360FDF7ACF9431C02D1236803B1BA
:104B20002B6038BDBC02002038B5074C054608464E
:104B30001146002222601A46FDF7F1F9431C02D10A
:104B4000236803B12B6038BDBC02002082B001B9DC
:104B500001A942B14BB113780B601278101C18BF39
:104B6000012002B070471046FBE76FF00100F8E744
:104B7000884210B501EB020303D8421E99420CD1C2
:104B800010BD9842F9D28118D21AD34200D110BD7B
:104B900013F8014D01F8014DF7E711F8014B02F848
:104BA000014FEBE770477047F8B5074614460E46CD
:104BB00021B91146BDE8F840FFF772BB22B9FFF7F3
:104BC00021FB25462846F8BD00F033F884420FD972
:104BD00021463846FFF764FB05460028F2D03146EF
:104BE0002246FFF71DF831463846FFF70BFBE9E791
:104BF0003546E7E738B5074C05460846114600221A
:104C000022601A46FDF766F9431C02D1236803B1FE
:104C10002B6038BDBC02002049B1FF2A85BF8A2322
:104C200003600A704FF0FF3098BF012070470846BC
:104C3000704751F8040C0028A0F10400BCBF0B58C9
:104C4000C018704781F0004102E000BF83F00043CC
:104C500030B54FEA41044FEA430594EA050F08BF17
:104C600090EA020F1FBF54EA000C55EA020C7FEADB
:104C7000645C7FEA655C00F0E2804FEA5454D4EB58
:104C80005555B8BF6D420CDD2C4480EA020281EA22
:104C9000030382EA000083EA010180EA020281EA5A
:104CA0000303362D88BF30BD11F0004F4FEA0131AC
:104CB0004FF4801C4CEA113102D0404261EB4101BB
:104CC00013F0004F4FEA03334CEA133302D0524241
:104CD00063EB430394EA050F00F0A780A4F10104FD
:104CE000D5F1200E0DDB02FA0EFC22FA05F2801837
:104CF00041F1000103FA0EF2801843FA05F359411D
:104D00000EE0A5F120050EF1200E012A03FA0EFC9B
:104D100028BF4CF0020C43FA05F3C01851EBE371C5
:104D200001F0004507D54FF0000EDCF1000C7EEBE2
:104D300000006EEB0101B1F5801F1BD3B1F5001F20
:104D40000CD349085FEA30004FEA3C0C04F101043F
:104D50004FEA445212F5800F80F09A80BCF1004F68
:104D600008BF5FEA500C50F1000041EB045141EAEA
:104D7000050130BD5FEA4C0C404141EB010111F4EB
:104D8000801FA4F10104E9D191F0000F04BF014696
:104D90000020B1FA81F308BF2033A3F10B03B3F174
:104DA00020020CDA0C3208DD02F1140CC2F10C0204
:104DB00001FA0CF021FA02F10CE002F11402D8BF62
:104DC000C2F1200C01FA02F120FA0CFCDCBF41EA2E
:104DD0000C019040E41AA2BF01EB0451294330BDFD
:104DE0006FEA04041F3C1CDA0C340EDC04F11404DA
:104DF000C4F1200220FA04F001FA02F340EA0300B1
:104E000021FA04F345EA030130BDC4F10C04C4F1F6
:104E1000200220FA02F001FA04F340EA03002946D6
:104E200030BD21FA04F0294630BD94F0000F83F420
:104E3000801306BF81F480110134013D4EE77FEA03
:104E4000645C18BF7FEA655C29D094EA050F08BF4F
:104E500090EA020F05D054EA000C04BF1946104630
:104E600030BD91EA030F1EBF0021002030BD5FEA74
:104E7000545C05D14000494128BF41F0004130BD9C
:104E800014F580043CBF01F5801130BD01F00045F0
:104E900045F0FE4141F470014FF0000030BD7FEA63
:104EA000645C1ABF194610467FEA655C1CBF0B465E
:104EB000024650EA013406BF52EA033591EA030F75
:104EC00041F4002130BD00BF90F0000F04BF00216D
:104ED000704730B54FF4806404F132044FF00005A0
:104EE0004FF0000150E700BF90F0000F04BF002119
:104EF000704730B54FF4806404F1320410F000457F
:104F000048BF40424FF000013EE700BF42004FEA79
:104F1000E2014FEA31014FEA02701FBF12F07F43F6
:104F200093F07F4F81F06051704792F0000F14BFF3
:104F300093F07F4F704730B54FF4607401F0004537
:104F400021F0004120E700BF50EA010208BF70478E
:104F500030B54FF000050AE050EA010208BF704783
:104F600030B511F0004502D5404261EB41014FF4EC
:104F7000806404F132045FEA915C3FF4DCAE4FF0F0
:104F800003025FEADC0C18BF03325FEADC0C18BFD7
:104F9000033202EBDC02C2F1200300FA03FC20FA28
:104FA00002F001FA03FE40EA0E0021FA02F1144475
:104FB000C1E600BF70B54FF0FF0C4CF4E06C1CEA8A
:104FC00011541DBF1CEA135594EA0C0F95EA0C0FFF
:104FD00000F0DEF82C4481EA030621EA4C5123EA72
:104FE0004C5350EA013518BF52EA033541F48011A1
:104FF00043F4801338D0A0FB02CE4FF00005E1FB54
:1050000002E506F00042E0FB03E54FF00006E1FB9D
:1050100003569CF0000F18BF4EF0010EA4F1FF04E0
:10502000B6F5007F64F5407404D25FEA4E0E6D4120
:1050300046EB060642EAC62141EA55514FEAC52031
:1050400040EA5E504FEACE2EB4F1FD0C88BFBCF5AD
:10505000E06F1ED8BEF1004F08BF5FEA500E50F15E
:10506000000041EB045170BD06F0004646EA010124
:1050700040EA020081EA0301B4EB5C04C2BFD4EB56
:105080000C0541EA045170BD41F480114FF0000E4F
:10509000013C00F3AB8014F1360FDEBF002001F0BD
:1050A000004170BDC4F10004203C35DA0C341BDC37
:1050B00004F11404C4F1200500FA05F320FA04F009
:1050C00001FA05F240EA020001F0004221F000413D
:1050D00010EBD37021FA04F642EB06015EEA430EB0
:1050E00008BF20EAD37070BDC4F10C04C4F12005E0
:1050F00000FA04F320FA05F001FA04F240EA020093
:1051000001F0004110EBD37041F100015EEA430E63
:1051100008BF20EAD37070BDC4F1200500FA05F283
:105120004EEA020E20FA04F301FA05F243EA020302
:1051300021FA04F001F0004121FA04F220EA020011
:1051400000EBD3705EEA430E08BF20EAD37070BD57
:1051500094F0000F0FD101F00046400041EB010137
:1051600011F4801F08BF013CF7D041EA060195F019
:10517000000F18BF704703F00046520043EB0303D3
:1051800013F4801F08BF013DF7D043EA06037047C0
:1051900094EA0C0F0CEA135518BF95EA0C0F0CD0CB
:1051A00050EA410618BF52EA4306D1D181EA030111
:1051B00001F000414FF0000070BD50EA410606BF0B
:1051C0001046194652EA430619D094EA0C0F02D150
:1051D00050EA013613D195EA0C0F05D152EA033695
:1051E0001CBF104619460AD181EA030101F00041B3
:1051F00041F0FE4141F470014FF0000070BD41F0FC
:10520000FE4141F4780170BD70B54FF0FF0C4CF4D5
:10521000E06C1CEA11541DBF1CEA135594EA0C0FF4
:1052200095EA0C0F00F0A7F8A4EB050481EA030E41
:1052300052EA03354FEA013100F088804FEA033328
:105240004FF0805545EA131343EA12634FEA0222F6
:1052500045EA111545EA10654FEA00260EF00041B7
:105260009D4208BF964244F1FD0404F5407402D209
:105270005B084FEA3202B61A65EB03055B084FEA9A
:1052800032024FF480104FF4002CB6EB020E75EB97
:10529000030E22BFB61A754640EA0C005B084FEABF
:1052A0003202B6EB020E75EB030E22BFB61A75463C
:1052B00040EA5C005B084FEA3202B6EB020E75EB87
:1052C000030E22BFB61A754640EA9C005B084FEAFF
:1052D0003202B6EB020E75EB030E22BFB61A75460C
:1052E00040EADC0055EA060E18D04FEA051545EAFB
:1052F00016754FEA06164FEAC30343EA52734FEAA4
:10530000C2025FEA1C1CC0D111F4801F0BD141EA1C
:1053100000014FF000004FF0004CB6E711F4801F81
:1053200004BF01430020B4F1FD0C88BFBCF5E06F61
:105330003FF6AFAEB5EB030C04BFB6EB020C5FEA71
:10534000500C50F1000041EB045170BD0EF0004EC6
:105350004EEA113114EB5C04C2BFD4EB0C0541EAF8
:10536000045170BD41F480114FF0000E013C90E6F5
:1053700045EA060E8DE60CEA135594EA0C0F08BFB9
:1053800095EA0C0F3FF43BAF94EA0C0F0AD150EAB8
:1053900001347FF434AF95EA0C0F7FF425AF10464B
:1053A00019462CE795EA0C0F06D152EA03353FF473
:1053B000FDAE1046194622E750EA410618BF52EAF0
:1053C00043067FF4C5AE50EA41047FF40DAF52EAC4
:1053D00043057FF4EBAE12E74FF0FF3C06E000BF61
:1053E0004FF0010C02E000BF4FF0010C4DF804CD6E
:1053F0004FEA410C7FEA6C5C4FEA430C18BF7FEA2E
:105400006C5C1BD001B050EA410C0CBF52EA430C5B
:1054100091EA030F02BF90EA020F0020704710F1DB
:10542000000F91EA030F58BF994208BF90422CBF6A
:10543000D8176FEAE37040F0010070474FEA410C63
:105440007FEA6C5C02D150EA013C07D14FEA430C81
:105450007FEA6C5CD6D152EA033CD3D05DF8040BF2
:10546000704700BF8446104662468C461946634624
:1054700000E000BF01B5FFF7B7FF002848BF10F1FB
:10548000000F01BD4DF808EDFFF7F4FF0CBF012040
:1054900000205DF808FB00BF4DF808EDFFF7EAFFBC
:1054A00034BF012000205DF808FB00BF4DF808ED77
:1054B000FFF7E0FF94BF012000205DF808FB00BF6C
:1054C0004DF808EDFFF7CEFF94BF012000205DF8F6
:1054D00008FB00BF4DF808EDFFF7C4FF34BF012003
:1054E00000205DF808FB00BF4FEA410C7FEA6C5CCE
:1054F00002D150EA013C0AD14FEA430C7FEA6C5CCE
:1055000002D152EA033C02D14FF0000070474FF045
:10551000010070474FEA410212F5001215D211D571
:105520006FF47873B3EB625212D94FEAC12343F0A0
:10553000004343EA505311F0004F23FA02F018BF22
:10554000404270474FF00000704750EA013005D1EB
:1055500011F0004008BF6FF0004070474FF00000AE
:10556000704700BF2E2E2F73797374656D2F737281
:10557000632F73746D333266342D68616C2F7374CE
:105580006D3332663478785F68616C5F636F727414
:1055900065782E63000000002E2E2F7379737465DA
:1055A0006D2F7372632F73746D333266342D68619F
:1055B0006C2F73746D3332663478785F68616C5F1A
:1055C0006770696F2E630000000000000102030491
:1055D00001020304060708092E2E2F7379737465E0
:1055E0006D2F7372632F73746D333266342D68615F
:1055F0006C2F73746D3332663478785F68616C5FDA
:105600007263632E630000002E2E2F73797374650E
:105610006D2F7372632F73746D333266342D68612E
:105620006C2F73746D3332663478785F68616C5FA9
:10563000756172742E630000537461636B2066722F
:10564000616D653A0A000000205230203D2020257F
:105650003038580A00000000205231203D2020251B
:105660003038580A00000000205232203D2020250A
:105670003038580A00000000205233203D202025F9
:105680003038580A0000000020523132203D2025D9
:105690003038580A00000000204C52203D202025C0
:1056A0003038580A00000000205043203D202025BB
:1056B0003038580A0000000020505352203D202569
:1056C0003038580A000000004653522F4641523AE3
:1056D0000A0000002043465352203D202025303848
:1056E000580A00002048465352203D2020253038DB
:1056F000580A00002044465352203D2020253038CF
:10570000580A00002041465352203D2020253038C1
:10571000580A0000204D4D464152203D202530388A
:10572000580A00002042464152203D2020253038B2
:10573000580A00004D6973630A000000204C522F84
:105740004558435F52455455524E3D2025303858F8
:105750000A0000005B486172644661756C745D0A02
:10576000000000005B4275734661756C745D0A0051
:105770005B55736167654661756C745D0A00000076
:1057800000000000000000000102030406070809F1
:105790002E2E2F7372632F6D61696E2E63707000F1
:1057A0000D0A20486F6C61204D756E646F202530A6
:1057B0002E32660D0A00000014000020494E4600FB
:1057C000696E66004E414E006E616E0030003031F1
:1057D0003233343536373839414243444546003058
:1057E0003132333435363738396162636465660087
:1057F000496E66696E697479004E614E0000000062
:105800000000000000000000000000000000000098
:105810000000000000000000000000000000000088
:105820000000000000000000000000000000000078
:105830000000000000000000000000000000000068
:105840000000000000000000000000000000000058
:105850000000000000000000000000000000000048
:105860000080E03779C34143176E05B5B5B893465C
:10587000F5F93FE9034F384D321D30F94877825A28
:105880003CBF737FDD4F1575000000000000F03F46
:10589000000000000000244000000000000059400B
:1058A0000000000000408F40000000000088C3405E
:1058B00000000000006AF8400000000080842E41D3
:1058C00000000000D01263410000000084D797411F
:1058D0000000000065CDCD41000000205FA0024225
:1058E000000000E876483742000000A2941A6D429A
:1058F000000040E59C30A2420000901EC4BCD6428D
:1059000000003426F56B0C430080E03779C3414337
:1059100000A0D8855734764300C84E676DC1AB43AD
:10592000003D9160E458E143408CB5781DAF1544CB
:1059300050EFE2D6E41A4B4492D54D06CFF08044A6
:10594000F64AE1C7022DB544B49DD9794378EA44BB
:1059500005000000190000007D000000232D302B01
:105960002000686C4C006566674546470043005060
:105970004F534958002E00002020202020202020B6
:1059800020282828282820202020202020202020EF
:10599000202020202020202088101010101010100F
:1059A0001010101010101010040404040404040457
:1059B00004041010101010101041414141414101E8
:1059C00001010101010101010101010101010101C7
:1059D00001010110101010101042424242424202D6
:1059E0000202020202020202020202020202020297
:1059F0000202021010101020000000000000000041
:105A00000000000000000000000000000000000096
:105A10000000000000000000000000000000000086
:105A20000000000000000000000000000000000076
:105A30000000000000000000000000000000000066
:105A40000000000000000000000000000000000056
:105A50000000000000000000000000000000000046
:105A60000000000000000000000000000000000036
:085A700000000000000000002E
:105A780078563412EC010020000000000024F400E5
:105A880014000020000000002058000840580008BA
:105A9800005800080000000000000000000000009E
:105AA80000000000000000000000000000000000EE
:105AB80000000000000000000000000000000000DE
:105AC80000000000000000000000000000000000CE
