:020000040800F2
:1000000000000220DD03000835160008371600083E
:10001000391600083B1600083D16000800000000D5
:100020000000000000000000000000003F16000873
:10003000411600080000000043160008451600089D
:10004000ED110008ED110008ED110008ED11000898
:10005000ED110008ED110008ED110008ED11000888
:10006000ED110008ED110008ED110008ED11000878
:10007000ED110008ED110008ED110008ED11000868
:10008000ED110008ED110008ED110008ED11000858
:10009000ED110008ED110008ED110008ED11000848
:1000A000ED110008ED110008ED110008ED11000838
:1000B000ED110008ED110008ED110008ED11000828
:1000C000ED110008ED110008ED110008ED11000818
:1000D000ED110008ED110008ED110008ED11000808
:1000E000ED110008ED110008ED110008ED110008F8
:1000F000ED110008ED110008ED110008ED110008E8
:10010000ED110008ED110008ED110008ED110008D7
:10011000ED110008ED110008ED110008ED110008C7
:10012000ED110008ED110008ED110008ED110008B7
:10013000ED110008ED110008ED110008ED110008A7
:10014000ED110008ED110008ED110008ED11000897
:10015000ED110008ED110008ED110008ED11000887
:10016000ED110008ED110008ED110008ED11000877
:10017000ED110008ED110008ED110008000000006D
:10018000ED110008ED11000800000220DD03000859
:100190003516000837160008391600083B16000807
:1001A0003D160008000000000000000000000000F4
:1001B000000000003F160008411600080000000083
:1001C0004316000845160008ED110008ED1100085F
:1001D000ED110008ED110008ED110008ED11000807
:1001E000ED110008ED110008ED110008ED110008F7
:1001F000ED110008ED110008ED110008ED110008E7
:10020000ED110008ED110008ED110008ED110008D6
:10021000ED110008ED110008ED110008ED110008C6
:10022000ED110008ED110008ED110008ED110008B6
:10023000ED110008ED110008ED110008ED110008A6
:10024000ED110008ED110008ED110008ED11000896
:10025000ED110008ED110008ED110008ED11000886
:10026000ED110008ED110008ED110008ED11000876
:10027000ED110008ED110008ED110008ED11000866
:10028000ED110008ED11000841040008ED1100080F
:10029000ED110008ED110008ED110008ED11000846
:1002A000ED110008ED110008ED110008ED11000836
:1002B000ED110008ED110008ED110008ED11000826
:1002C000ED110008ED110008ED110008ED11000816
:1002D000ED110008ED110008ED110008ED11000806
:1002E000ED110008ED110008ED110008ED110008F6
:1002F000ED110008ED110008ED110008ED110008E6
:10030000ED11000800000000ED110008ED110008DB
:1003100007B500F04DFF274B2748834226D3274BD4
:10032000274900208B422DD301F00AF8254E264C98
:1003300001A9684600F034FFA41BA4100025AC42BC
:1003400029DC224E224CA41BA4100025AC4227DC41
:100350009DE8030001F048F81E4D1F4C641B064643
:10036000A410002C21DC304600F0F9FE93E80600D2
:100370000C3353F8044C9442CFD951F8045B42F843
:10038000045BF8E753F8082B53F8044C9442C9D99E
:1003900042F8040BFAE756F8253098470135CEE7C6
:1003A00056F8253098470135D0E7013C55F8243000
:1003B0009847D6E7440400085C0400085C04000881
:1003C0006C0400086C0400086C0400086C0400084D
:1003D0006C0400086C0400086C0400081448004712
:1003E000FEE71EF0040F0CBFEFF30880EFF3098067
:1003F0007146104A1047FEE7FEE71EF0040F0CBFDF
:10040000EFF30880EFF3098071460B4A1047FEE7CF
:100410001EF0040F0CBFEFF30880EFF30980714664
:10042000064A1047FEE7FEE7FEE7FEE770470000DA
:1004300011030008F70300080F0400082504000852
:02044000FEE7D5
:10044400382700080000002070000020382700082A
:10045400000000100000001070000020CC000020FC
:08046400000000100000001070
:1004700010B5084B044618684FF47A73B0FBF3F0DC
:1004800000F078F8002221464FF0FF3000F03EF8EF
:10049000002010BD0800002008B50B4B1A6842F47C
:1004A00000721A601A6842F480621A601A6842F494
:1004B00080721A60032000F017F80020FFF7D8FFC1
:1004C00001F05FF8002008BD003C0240024A1368BA
:1004D00001331360704700BFC0000020014B186853
:1004E000704700BFC0000020074AD36823F4E063D0
:1004F0001B041B0C43F0BF63000243F4003300F401
:10050000E0600343D360704700ED00E0174B30B567
:10051000DC68C4F30224C4F10703251D042B28BFA3
:100520000423062D4FF0010505FA03F303F1FF3311
:100530008CBF033C00241940A14005FA04F4013C9F
:100540002240002842EA01024FEA0212AFBF00F146
:10055000604000F00F00064BD2B2A5BF00F561402D
:10056000D2B21A5480F8002330BD00BF00ED00E085
:1005700014ED00E00138B0F1807F0AD2064B074A43
:100580005860F02182F823100020072298601A603A
:1005900070470120704700BF10E000E000ED00E070
:1005A000044B1A6804280CBF42F0040222F0040233
:1005B0001A60704710E000E0704708B5FFF7FCFFD5
:1005C00008BD00002DE9F04F85B00B68DFF8AC8165
:1005D000684ADFF8AC91019300234FF0010E019CB3
:1005E0000EFA03FE0EEA0406B64540F0AE804C68F3
:1005F00024F01007022F16D14FEAD30A00EB8A0A23
:1006000003F0070BDAF820504FEA8B0B4FF00F0C7A
:100610000CFA0BFC25EA0C0C0D6905FA0BF545EA02
:100620000C05CAF820504FEA430A0325D0F800B061
:1006300005FA0AF5ED4304F0030C0BEA050B0CFA7E
:100640000AFC013F4CEA0B0C012FC0F800C011D886
:10065000876807EA050BCF6807FA0AFC4CEA0B0724
:100660008760476827EA0E0EC4F300179F4047EAE9
:100670000E074760C7683D408F6807FA0AF73D4399
:10068000C560E50061D54FF0000BCDF80CB0D8F88F
:100690004470394D47F48047C8F84470D8F8447026
:1006A00007F480470397039F23F0030707F1804770
:1006B00007F59C3703F0030CD7F808A04FEA8C0C21
:1006C0004FF00F0E0EFA0CFEA8422AEA0E0E43D08F
:1006D00005F58065A84241D005F58065A8423FD068
:1006E00005F58065A8423DD005F58065A8423BD060
:1006F00048453BD005F50065A84239D005F5806531
:10070000A84214BF0825072505FA0CF545EA0E0591
:10071000BD601568F74314F4803F0CBF3D4035437E
:100720001560556814F4003F0CBF3D4035435560DB
:10073000956814F4801F0CBF3D4035439560D56823
:10074000A40254BF3D403543D5600133102B7FF4E4
:1007500044AF05B0BDE8F08F5D46D5E70125D3E78E
:100760000225D1E70325CFE70425CDE70525CBE713
:100770000625C9E7003C0140000002400038024065
:10078000001402400AB1816170470904FBE70000D0
:100790000368F7B50446D8073BD42368990700F1EE
:1007A000868023681E0700F1D18023685D072AD563
:1007B000002301938E4B8F4D1A6C42F080521A64C5
:1007C0001B6C03F080530193019B2B6843F48073EF
:1007D0002B60FFF783FE06462B68DA0540F1D880D0
:1007E000A368834D012B40F0DA802B6F43F00103A7
:1007F0002B67FFF773FE7E4D064641F288372B6F5D
:100800009B0740F1ED80A269002A40F0F9800020AA
:1008100015E0774B9A6802F00C02042A07D09A6818
:1008200002F00C02082A0CD15B685A0209D5704B01
:100830001B689B03B1D56368002BAED1012003B0C8
:10084000F0BD63686A4DB3F5803F11D12B6843F466
:1008500080332B60FFF742FE654D06462B689F03F1
:100860009BD4FFF73BFE801B6428F7D90320E6E703
:10087000B3F5A02F04D12B6843F480232B60E5E768
:100880002A6822F480322A602A6822F480222A60B0
:10089000002BDFD1FFF722FE06462B6898037FF579
:1008A0007CAFFFF71BFE801B6428F6D9DEE7504BB8
:1008B0009A6812F00C0F07D09A6802F00C02082A0E
:1008C00016D15B68590213D4494B1A68920702D5B6
:1008D000E268012AB2D11868F82292FAA2F2B2FABA
:1008E00082F122698A4020F0F8010A431A6058E731
:1008F000E268414BDAB101221A60FFF7EFFD3C4D8F
:1009000006462B689B070CD52968F82393FAA3F3B6
:10091000B3FA83F22369934021F0F80213432B606A
:100920003FE7FFF7DBFD801B0228EAD99EE71A604C
:10093000FFF7D4FD2E4D06462B689F077FF531AF9C
:10094000FFF7CCFD801B0228F6D98FE762692B4B9D
:100950007AB101221A60FFF7C1FD254D06466B6F83
:1009600098073FF522AFFFF7B9FD801B0228F6D9A3
:100970007CE71A60FFF7B2FD1D4D06466B6F9907C5
:100980007FF513AFFFF7AAFD801B0228F6D96DE7AC
:10099000FFF7A4FD801B02287FF61EAF66E7052B3C
:1009A00004D12B6F43F004032B671EE72A6F22F05C
:1009B00001022A672A6F22F004022A67002B7FF4C3
:1009C00018AFFFF78BFD41F2883706462B6F98076B
:1009D0007FF519AFFFF782FD801BB842F6D945E7D6
:1009E000FFF77CFD801BB8427FF609AF3EE700BFF2
:1009F000003802400070004000004742800E47422D
:100A00002B4DAB6803F00C03082B3FF417AF294EB6
:100A10000023022A33603ED1FFF760FD07462B68B2
:100A2000990132D447F6C07797FAA7F74FF44032CE
:100A3000B7FA87F792FAA2F24FF07061B2FA82F039
:100A400091FAA1F1226AE3691343626A02FA07F795
:100A5000A26A5208013A82403B431343E26A144CB3
:100A6000B1FA81F102FA01F10B436B6001233360AB
:100A7000FFF734FD054623689A013FF5C8AEFFF73E
:100A80002DFD401B0228F6D9F0E6FFF727FDC01B1D
:100A90000228C4D9EAE6FFF721FD04462B689B0132
:100AA0007FF5B5AEFFF71AFD001B0228F6D9DDE68B
:100AB0000038024060004742194A936803F00C0373
:100AC000042B10B503D0082B03D0164810BD1648D0
:100AD00010BD5168536801F03F0113F4800F47F6D1
:100AE000C074536894FAA4F0B0FA80F003EA0403E7
:100AF00023FA00F314BF0C480A48B0FBF1F0584346
:100B0000074B4FF440325B6892FAA2F2B2FA82F2DB
:100B100003F44033D34001335B00B0FBF3F010BD6E
:100B2000003802400024F40040787D01564B1A68DA
:100B300002F00F028A422DE9F04105460E4630D3FD
:100B40002A68940737D4D0073DD44F4B1A6802F077
:100B50000F029642C0F088802A68510700F18C800D
:100B6000130707D5494A2969936823F4604343EA88
:100B7000C1039360FFF7A0FF444BF0229B6892FAF9
:100B8000A2F2B2FA82F203F0F003D340404AD35CFF
:100B9000D840404B18600020FFF76AFC0020BDE8F9
:100BA000F081CAB21A701B6803F00F039942C7D0D4
:100BB0000120BDE8F0813549A8688B6823F0F00377
:100BC00003438B60BFE76A68304B012A1ED11B6864
:100BD00013F4003FECD02D4CA36823F00303134320
:100BE000A360FFF77BFC6B68012B074641F2883856
:100BF00016D1A36803F00C03042BA6D0FFF76EFCFC
:100C0000C01B4045F5D90320BDE8F081911E0129A4
:100C10001B6802D813F0007FDCE713F0020FD9E75E
:100C2000022B0AD1A36803F00C03082B8DD0FFF729
:100C300055FCC01B4045F5D9E5E7032B0FD1A36850
:100C400003F00C030C2B80D0FFF748FCC01B404581
:100C5000F5D9D8E7FFF742FCC01B4045D3D8A368BD
:100C600013F00C0FF6D170E7F2B21A701B6803F0A4
:100C70000F039E429CD16FE70449E8688B6823F418
:100C8000E05303438B606BE7003C024000380240B6
:100C90006826000808000020014B1868704700BF54
:100CA00008000020084B4FF4E0529B6892FAA2F231
:100CB000B2FA82F203F4E053D340044AD35C044A0C
:100CC0001068D840704700BF00380240682600080E
:100CD00008000020084B4FF460429B6892FAA2F291
:100CE000B2FA82F203F46043D340044AD35C044A6C
:100CF0001068D840704700BF0038024068260008DE
:100D0000080000202DE9F0470668C2683369C16910
:100D100023F4405313433361044683680069F26847
:100D20000343606922F41642034322F00C020B4392
:100D30001343F3607369A26923F440731343B1F55D
:100D4000004F73617A4B7CD19E4203D003F58063E0
:100D50009E4244D1FFF7BEFF192505FB00F36068F2
:100D60004FF064094000B3FBF0F3B3FBF9F34FEA33
:100D70000318FFF7AFFF636868435B00B0FBF3F74E
:100D8000FFF7A8FF636868435B00B0FBF3F3B3FBB6
:100D9000F9F309FB1373DB003233B3FBF9F35B00A8
:100DA00003F4F877FFF796FF626868435200B0FBE0
:100DB000F2FAFFF78FFF636868435B00B0FBF3F361
:100DC000B3FBF9F309FB13A3DB003233B3FBF9F3F5
:100DD00003F0070343443B44B360BDE8F087FFF7EB
:100DE00061FF192505FB00F360684FF064094000BE
:100DF000B3FBF0F3B3FBF9F34FEA0318FFF752FF2D
:100E0000636868435B00B0FBF3F7FFF74BFF636871
:100E100068435B00B0FBF3F3B3FBF9F309FB137317
:100E2000DB003233B3FBF9F35B0003F4F877FFF731
:100E300039FF626868435200B0FBF2FAFFF732FFF5
:100E4000B9E79E4202D03B4B9E4240D1FFF742FFA2
:100E5000676819254FF0640905FB00F3BF00B3FB79
:100E6000F7F3B3FBF9F31F01FFF734FF636868433F
:100E70009B00B0FBF3F8FFF72DFF636868439B000E
:100E8000B0FBF3F3B3FBF9F309FB13831B0132331C
:100E9000B3FBF9F303F0F008FFF71CFF6268684347
:100EA0009200B0FBF2FAFFF715FF636868439B00FE
:100EB000B0FBF3F3B3FBF9F309FB13A31B013233CC
:100EC000B3FBF9F303F00F0343EA080383E7FFF7EB
:100ED000E9FE676819254FF0640905FB00F3BF00C0
:100EE000B3FBF7F3B3FBF9F31F01FFF7DBFE636816
:100EF00068439B00B0FBF3F8FFF7D4FE63686843D8
:100F00009B00B0FBF3F3B3FBF9F309FB13831B0165
:100F10003233B3FBF9F303F0F008FFF7C3FE626866
:100F200068439200B0FBF2FAFFF7BCFEBDE700BFDA
:100F30000010014000140140F8B504460E46174663
:100F40001D4621680B6836EA030301D10020F8BD75
:100F50006B1CF7D095B92368DA6822F4D072DA6096
:100F60005A6922F001025A61202384F8393084F84A
:100F70003A30002384F838300320F8BDFFF7AEFA8A
:100F8000C01B8542DDD2E6E710B5044640B390F8B9
:100F9000393003F0FF021BB980F8382000F022FB43
:100FA0002268242384F83930D36823F40053D360B3
:100FB0002046FFF7A7FE23681A6922F490421A61BF
:100FC0005A6922F02A025A61DA6842F40052DA6061
:100FD00000202023E06384F8393084F83A3010BDD3
:100FE000012010BD2DE9F0411F4690F83930202B2B
:100FF00004460D4690464FD100294AD0002A48D0D9
:1010000090F83830012B47D0012380F83830002386
:10101000C363212380F83930FFF760FAA4F82480F5
:101020000646A4F82680E38C9BB26BB93B46324659
:1010300040212046FFF780FFB0B9202384F83930E3
:1010400084F83800BDE8F081E38C013B9BB2E38477
:10105000A368B3F5805F32463B464FF080012046DF
:101060000ED1FFF769FF10B10320BDE8F0812B8896
:101070002268C3F308035360236943B90235D2E7FA
:10108000FFF75AFF0028EFD123682A785A6001350C
:10109000C9E70120BDE8F0810220BDE8F0812DE91B
:1010A000F0411F4690F83A30202B04460D469046FA
:1010B00052D100294DD0002A4BD090F83830012B66
:1010C0004AD0012380F838300023C363222380F8FC
:1010D0003A30FFF703FAA4F82C800646A4F82E80D5
:1010E000E08D80B230B9202384F83A3084F838009B
:1010F000BDE8F081E38D013B9BB2E385A368B3F5C6
:10110000805F32463B464FF02001204612D1FFF768
:1011100013FF10B10320BDE8F081236822695B68EA
:1011200022B9C3F3080325F8023BD9E7DBB225F85F
:10113000013BD5E7FFF700FF0028EBD123682169C9
:101140005B686A1C11B92B701546C9E703F07F0371
:10115000F9E70120BDE8F0810220BDE8F08108B583
:1011600000F032F80B4A116808B5034609B90A497C
:10117000116010680949033323F0030303448B42D1
:1011800006D900F067FA0C2303604FF0FF3008BD6A
:10119000136008BD70000020CC00002000FC01207E
:1011A00001230360014B0B60704700BF000000206B
:1011B00008B500F01DF8024B024A9A6008BD00BF56
:1011C00000ED00E000000008BFF34F8F0549064B1B
:1011D000CA6802F4E0621343CB60BFF34F8F00BFD5
:1011E000FDE700BF00ED00E00400FA05FEE70000A7
:1011F0000C4B1A68002142F001021A6099601A68CB
:1012000022F0847222F480321A60074A5A601A6807
:1012100022F480221A60D960044B4FF000629A6079
:10122000704700BF003802401030002400ED00E09D
:10123000174A1849936803F00C03042B10B50DD01E
:10124000082B0DD0144B0B60114B144A9B68C3F351
:101250000313D25C0B68D3400B6010BD104BF2E758
:101260005468506852686302C2F3881200F03F006D
:101270004CBF0B4B084BB3FBF0F35343044A52688B
:10128000C2F3014201325200B3FBF2F3DBE700BFCD
:1012900000380240080000200024F40078260008EE
:1012A00040787D0130B595B00024234B01941A6C31
:1012B00042F080521A641B6C03F080530193019B2F
:1012C0001E4B02941A6842F480421A601B6803F4B1
:1012D00080430293029B012308934FF480330993C8
:1012E0004FF480030F93192310934FF4A873022532
:1012F000119308A80723139312950E95FFF748FA48
:101300000F2303934FF4A0530521069303A84FF432
:101310008053079304950594FFF708FCFFF7BCFC86
:101320004FF47A73B0FBF3F0FFF724F90420FFF7D2
:1013300037F915B030BD00BF0038024000700040E2
:1013400008B5FFF7A9F8FFF7ADFFBDE80840FFF7C4
:101350006FBF000010B594B00023214A0193116CB7
:1013600041F080511164126C02F080520192019A96
:101370001C4A0293116841F48041116012680E9377
:1013800002F480420292029A0222089201220B92F7
:1013900008A810220C92FFF7FBF9014600B1FEE706
:1013A0000F23049005900690079003A80393FFF77E
:1013B000BDFB044600B1FEE7FFF76EFC4FF47A7305
:1013C000B0FBF3F0FFF7D6F80420FFF7E9F8224668
:1013D00021464FF0FF30FFF799F814B010BD00BF61
:1013E000003802400070004080B588B00024FFF74C
:1013F00053F8FFF7AFFF2A4B00941A6B29482A4D88
:1014000042F020021A631A6B02F020020092009A46
:1014100001941A6B42F004021A631A6B02F0040280
:101420000192019A02941A6B42F001021A631B6B3B
:1014300003F00103224602934021029B4026FFF75E
:10144000A1F901271748039603A904970594069468
:10145000FFF7B8F8154AAC604FF4165385E80C0056
:1014600028460C23EC602C616B61AC61EC61FFF7EA
:101470008BFD00B1FEE73A4631460A48FFF782F994
:10148000284600F017F804A3D3E90023084800F029
:10149000E7F8FEE7AFF300800000006066660240F8
:1014A000003802400014024078000020001401407F
:1014B00088260008044B1860044B18680023022299
:1014C0001946806800F0E4B8C80000200C00002035
:1014D000022808B505D900F0BDF8092303600020F3
:1014E00008BD012008BD00000138012810B51446D0
:1014F0000BD809484FF0FF3392B20068FFF772FD36
:10150000002818BF0524204610BD00F0A3F80923C9
:1015100003604FF0FF34F6E7C8000020022808B54A
:1015200006D900F097F8092303604FF0FF3008BD9B
:10153000002008BD08B558B909484FF0FF33012213
:101540000068FFF7ACFD00280CBF0120052008BD96
:1015500000F080F8092303604FF0FF3008BD00BFA2
:10156000C8000020022808B504D84FF400534B608F
:10157000002008BD00F06EF809230360F8E70020A2
:10158000704708B50320FEF7AFFF002211466FF049
:101590000B00FEF7BBFF002211466FF00A00FEF7BA
:1015A000B5FF002211466FF00900FEF7AFFF0022E1
:1015B00011466FF00400FEF7A9FF002211466FF0FC
:1015C0000300FEF7A3FF002211466FF00100FEF7B3
:1015D0009DFF002211464FF0FF30BDE80840FEF7A6
:1015E00095BF00007FB502680F4B9A4219D10023C6
:1015F00000930E4B0E485A6C42F020025A645B6C0A
:1016000003F020030093009BC02301930223029365
:10161000012303930323049301A908230593FEF7F1
:10162000D1FF07B05DF804FB001401400038024010
:10163000000802407047FEE7FEE7FEE7FEE770475E
:101640007047704708B5FEF741FFBDE80840FEF758
:10165000B4BF0000014B1868704700BF0C000020A9
:101660000FB40A4B13B51C6824B1A36913B9204603
:1016700000F0AEF905AB049AA1680193204600F092
:1016800079FB02B0BDE8104004B070470C000020A8
:101690002DE9F7431D46514B1E6804460F46904600
:1016A00026B1B36913B9304600F092F94C4B9C4215
:1016B00052D17468B8F1020F06D0B8F1010F00F2F0
:1016C0008980002DC0F286802146304600F016F950
:1016D000616B41B104F14403994202D0304600F0FD
:1016E00075FA002363630023A3616360A3891B066B
:1016F00003D52169304600F069FAA38923F44A63CF
:1017000023F00303B8F1020FA3815DD001AB6A4659
:101710002146304600F0E6F9A3891843A0812DBB8D
:10172000009D284600F042FA074600284ED1DDF819
:101730000090A9453CD14FF0FF30A38943F002034C
:10174000A3810023A36004F14703236023610123E5
:10175000636103B0BDE8F083224B9C4201D1B468C1
:10176000A8E7214B9C4208BFF468A3E7002FD8D01C
:10177000B36913B9304600F02BF9B8F1010F08BF77
:10178000A389276004BF43F00103A381A3892761D4
:1017900013F0080065611BD013F0010018BF6D4203
:1017A0004FF000031DBFA360A5611846A560D0E7F8
:1017B000484600F0FBF907460028BCD0A38943F057
:1017C0008003A3814D46D3E70020B6E7A946F5E79D
:1017D000A060BEE74FF0FF30BBE700BF0C00002069
:1017E000C4260008E4260008A42600088A892DE9FA
:1017F000F041054610070C465AD44B68002B05DC17
:101800000B6C002B02DC0020BDE8F081E66A002EA4
:10181000F9D0002312F480522F682B6033D0606D12
:10182000A3895A0705D56368C01A636B0BB1236C93
:10183000C01A00230246E66A216A2846B047431CC4
:10184000A38906D129681D294BD82B4ACA40D6073F
:1018500047D500226260D9042269226004D5421C67
:1018600001D12B6803B96065616B2F600029CAD074
:1018700004F14403994202D0284600F0A7F9002061
:101880006063BDE8F081216A01232846B047411C0E
:10189000C6D12B68002BC3D01D2B01D0162B01D134
:1018A0002F60B0E7A38943F04003A381BDE8F08136
:1018B0000F69002FA7D093070E6808BF4B690F6010
:1018C00018BF0023A6EB07088B60B8F1000F9ADD64
:1018D00043463A46216AA66A2846B047002807DCF4
:1018E000A38943F04003A3814FF0FF30BDE8F081AE
:1018F0000744A8EB0008E8E70100402038B50B6971
:1019000005460C46DBB118B183690BB900F060F8ED
:101910000C4B9C4209D16C68B4F90C307BB1214668
:101920002846BDE83840FFF761BF074B9C4201D114
:10193000AC68F1E7054B9C4208BFEC68ECE700207F
:1019400038BD00BFC4260008E4260008A42600080D
:10195000014900F0A9B800BFFD180008002310B528
:10196000044603604360836081814366C2810361F2
:1019700043618361194608225C3000F01FF9054B72
:101980006362054BA362054BE362054B246223634C
:1019900010BD00BFED2200080F23000847230008F8
:1019A0006B23000870B54A1E682555430E4605F1A5
:1019B000740100F059F9044640B1002180E842006A
:1019C0000C30A06005F1680200F0F8F8204670BD08
:1019D000836910B5044633BB8364C3640365124B4B
:1019E000124A1B688262984204BF0123836100F09F
:1019F0001FF86060204600F01BF8A060204600F051
:101A000017F80022E06004216068FFF7A7FF0122B9
:101A10000921A068FFF7A2FF02221221E068FFF768
:101A20009DFF0123A36110BDA026000851190008E5
:101A3000F8B51C4B1E68B369074613B93046FFF76B
:101A4000C7FF4836B4687368013B03D5336833B1C8
:101A50003668F7E7B4F90C506DB16834F4E7042147
:101A60003846FFF79FFF30600028F1D10C233B6020
:101A700004462046F8BD4FF6FF73E3810123A3819E
:101A800065662560A560656025616561A5610822C0
:101A9000294604F15C0000F091F86563A563A56434
:101AA000E564E6E7A02600082DE9F843804689466C
:101AB00000F14804002614B93046BDE8F883A56853
:101AC0006768013F01D52468F5E7AB89012B07D989
:101AD000B5F90E30013303D029464046C8470643C6
:101AE0006835EEE770B50E46B1F90E10002990B0DA
:101AF00014461D4607DA00232B60B3891A0610D45A
:101B00004FF480630EE001AA00F016FD0028F2DB1E
:101B1000029A02F47042A2F500535A425A412A60D6
:101B2000EEE740230020236010B070BD8B8973B5B1
:101B30009D0706460C4607D504F147032360236141
:101B40000123636102B070BD01AB6A46FFF7CAFFB3
:101B500000990546304600F087F848B9B4F90C30D2
:101B60009A05EFD423F0030343F00203A381E3E7D4
:101B70000D4BB362A389206043F08003A381009BD7
:101B80006361019B20615BB1B4F90E10304600F037
:101B9000E5FC28B1A38923F0030343F00103A381EB
:101BA000A3891D43A581CDE751190008024B0146C9
:101BB000186800F059B800BF0C000020024403462A
:101BC000934200D1704703F8011BF9E738B5054689
:101BD000002945D051F8043C0C1F002BB8BFE41875
:101BE00000F02EFD1F4A1368104633B9636014607D
:101BF0002846BDE8384000F024BDA3420CD9216836
:101C00006218934204BF1A685B68636004BF52188D
:101C100022600460ECE713465A680AB1A242FAD97E
:101C200019685818A0420BD1206801445818824204
:101C30001960DDD1106852685A6001441960D7E715
:101C400002D90C232B60D3E7206821188A4204BFF5
:101C500011685268626004BF091821605C60C7E7C0
:101C600038BD00BFB800002070B5CD1C25F00305BD
:101C700008350C2D38BF0C25002D064601DBA94286
:101C800003D90C233360002070BD00F0D9FC234A37
:101C90001468214691B9224C23681BB9304600F0E4
:101CA00015FB20602946304600F010FB431C26D16E
:101CB0000C233360304600F0C4FCE4E70B685B1B88
:101CC0001AD40B2B0FD90B60CD50CC18304600F036
:101CD000B8FC04F10B00231D20F00700C31A1BD031
:101CE0005A42E25070BD8C420DBF63684B6863601E
:101CF000136018BF0C46E9E70C464968CAE7C41CE4
:101D000024F00304A04205D0211A304600F0DEFA88
:101D10000130CDD02560D9E770BD00BFB8000020EC
:101D2000BC0000209368013B002B10B4936008DADC
:101D30009469A34202DBCBB20A2B02D110BC00F0A3
:101D400019BB1368581C10601970C8B210BC7047DA
:101D5000F8B506460F461446D518AC4201D100200E
:101D600007E03A4614F8011B3046FFF7DBFF431C3F
:101D7000F3D1F8BD2DE9F04F9DB00C461746039303
:101D8000064618B183690BB9FFF722FE7C4B9C42D3
:101D900057D17468A38918075DD52369002B5AD0E1
:101DA0000023099320238DF8293030238DF82A3021
:101DB0004FF0010BB846454615F8013B002B55D1B5
:101DC000B8EB070A0BD053463A4621463046FFF798
:101DD000BFFF013000F0C480099B5344099398F879
:101DE0000030002B00F0BC8000234FF0FF32049342
:101DF0000793059206938DF853301A93052229789C
:101E0000604800F0CDFB05F10108049B002831D1AA
:101E1000D90644BF20228DF853201A0744BF2B2235
:101E20008DF853202A782A2A2CD0079A00210A20DC
:101E3000A846013598F80030303B092B6DD971B3B5
:101E400026E0514B9C4201D1B468A3E74F4B9C4222
:101E500008BFF4689EE72146304600F0EFFA0028FC
:101E60009ED04FF0FF301DB0BDE8F08F252BA7D0DE
:101E7000A846A0E7434A801A0BFA00F018430490E2
:101E80004546BBE7039A111D12680391002A01DB46
:101E9000079204E0524243F002030792049398F839
:101EA00000302E2B10D198F801302A2B08F10101B7
:101EB00037D1039B1A1D1B680392002BB8BF4FF04C
:101EC000FF3308F102080593314D98F80010032202
:101ED000284600F065FB40B14023401B03FA00F0A8
:101EE000049B0343049308F1010898F80010294863
:101EF0008DF82810062208F1010700F051FB002898
:101F000034D0254B03BB039B073323F0070308336F
:101F10000393099B4B4409934CE700FB02320121D8
:101F200086E70023059318460A258846013198F86C
:101F30000020303A092A03D9002BC5D00590C3E709
:101F400005FB00200123F0E703AB00932246134B6F
:101F500004A93046AFF30080B0F1FF3F8146D8D1ED
:101F6000A3895B063FF57DAF09987CE703AB00933F
:101F700022460A4B04A9304600F088F8ECE700BF7F
:101F8000C426000804270008E4260008A426000848
:101F90000A2700080E27000800000000511D000855
:101FA0002DE9F04791461F468A680B69DDF82080CD
:101FB0009342B8BF1346C9F8003091F84320064653
:101FC0000C4612B10133C9F800302368990642BFAC
:101FD000D9F800300233C9F80030256815F006053D
:101FE00007D104F1190AE368D9F800209B1A9D4231
:101FF00029DB94F843302268003318BF012392068E
:102000002ED404F1430239463046C047013021D076
:102010002368E568D9F8002003F00603042B08BF05
:10202000AD1AA36822690CBF25EAE5750025934225
:10203000C4BF9B1AED184FF000091A344D451BD14F
:102040000020BDE8F0870123524639463046C0479C
:10205000013003D14FF0FF30BDE8F0870135C2E712
:10206000E1185A1C302081F84300224494F84510AE
:1020700082F843100233C4E7012322463946304632
:10208000C0470130E6D009F10109D7E72DE9F04357
:1020900017460A7E85B06E2A984606460C460C9B6B
:1020A00001F1430E00F0BC801AD8632A2ED00AD862
:1020B000002A00F0C880582A00F08A8004F1420506
:1020C00084F842202AE0642A01D0692AF6D12168E6
:1020D0001A6811F0800F23D0111D1960136827E0D2
:1020E000732A00F0B48008D86F2A2AD0702AE5D16C
:1020F0000A6842F020020A6003E0752A21D0782A9B
:10210000DCD1782284F845206E4964E01A6801F138
:102110004205111D1960136884F842300123A3E0C1
:1021200011F0400F02F104011960D7D0B2F900306C
:10213000002B03DA2D225B4284F8432062490A22F5
:1021400017E02068196810F0800F03D0081D186090
:102150000B6806E010F0400F01F104001860F7D0A2
:102160000B8859496F2A14BF0A220822002084F8DC
:1021700043006568A560002DC0F29C80206820F0B7
:1021800004002060002B3FD1002D40F09580754663
:10219000082A0BD12368DA0708D5236962689A42B6
:1021A000DEBF302305F8013C05F1FF35AEEB05033A
:1021B0002361CDF800803B4603AA21463046FFF755
:1021C000EFFE013055D14FF0FF3005B0BDE8F08390
:1021D00081F845203C492268186812F0800F00F110
:1021E00004051D6001D0036802E05506FBD5038895
:1021F000D00744BF42F0200222601BB9226822F0BF
:10220000200222601022B1E77546B3FBF2F002FB18
:102210001033CB5C05F8013D03460028F5D1B7E744
:1022200008681A68496910F0800F04D0101D186002
:102230001368196007E010F0400F02F10400186005
:102240001368F6D01980002323617546B1E71A6838
:10225000111D1960156862680021284600F0A0F978
:1022600008B1401B606063682361002384F8433039
:102270009FE723692A4639463046C0470130A2D03D
:1022800023689B0707D5002504F11909E368039A21
:102290009B1A9D4205DBE068039B9842B8BF184635
:1022A00093E701234A4639463046C04701308AD079
:1022B0000135EBE7002BA7D10B7884F8423004F10D
:1022C000420565E7262700081527000838B5064CA3
:1022D0000023054608462360FEF744FF431C02D155
:1022E000236803B12B6038BDC400002010B50C4634
:1022F000B1F90E1000F0A6F90028ABBF636DA389F9
:102300001B1823F48053ACBF6365A38110BD2DE976
:10231000F0411F468B89DB0505460C46164605D560
:1023200002230022B1F90E1000F028F9A389B4F9B4
:102330000E1023F48053A38132463B462846BDE865
:10234000F04100F069B810B50C46B1F90E1000F07C
:1023500015F9431CA38915BF606523F4805343F42A
:102360008053A38118BFA38110BDB1F90E1000F0F6
:10237000D3B80000F8B50E461446054618B1836977
:102380000BB9FFF725FB214B9C422AD16C68A3694E
:10239000A360A3891A072ED5236963B32369206834
:1023A000C01A6369F6B29842374604DB21462846D4
:1023B000FFF7A4FA28BBA368013BA36023685A1C5B
:1023C00022601E7063690130984204D0A389DB0744
:1023D00019D50A2E17D121462846FFF78FFA90B15A
:1023E0000FE00B4B9C4201D1AC68D0E7094B9C42FB
:1023F00008BFEC68CBE72146284600F01FF800280C
:10240000CCD04FF0FF373846F8BD00BFC4260008D7
:10241000E4260008A426000838B5074C05460846FF
:102420001146002222601A46FFF75EF8431C02D1D3
:10243000236803B12B6038BDC4000020324B70B557
:102440001D6806460C4625B1AB6913B92846FFF74F
:10245000BFFA2E4B9C420FD16C68B4F90C309AB283
:1024600015072CD4D00611D40922326043F0400362
:10247000A3814FF0FF3070BD254B9C4201D1AC6869
:10248000EBE7244B9C4208BFEC68E6E7510712D506
:10249000616B41B104F14403994202D03046FFF729
:1024A00095FB00236363A38923F02403A381002306
:1024B000636023692360A38943F00803A381236930
:1024C0004BB9A38903F42073B3F5007F03D02146F1
:1024D0003046FFF72BFBA28912F001030CD000233A
:1024E000A36063695B42A361236953B9B4F90C30FB
:1024F00013F08000BAD170BD920758BF6369A36022
:10250000F2E70020F7E700BF0C000020C426000817
:10251000E4260008A426000838B5064C002305462A
:1025200008462360FEF7FAFF431C02D1236803B17B
:102530002B6038BDC400002038B5074C0023054689
:10254000084611462360FFF70DF8431C02D12368AB
:1025500003B12B6038BD00BFC400002038B5064C65
:102560000023054608462360FEF7B2FF431C02D154
:10257000236803B12B6038BDC400002038B5074C78
:10258000054608461146002222601A46FEF7F7FF6C
:10259000431C02D1236803B12B6038BDC400002066
:1025A00001F0FF01102A2BDB10F0070F08D010F804
:1025B000013B013A8B422DD010F0070F42B3F6D108
:1025C000F0B441EA012141EA014122F007047FF021
:1025D00000070023F0E80256083C85EA010586EA78
:1025E000010685FA47F5A3FA87F586FA47F6A5FAB4
:1025F00087F68EB9EED1F0BC01F0FF0102F00702C0
:1026000032B110F8013B013A83EA010313B1F8D16A
:102610000020704701387047002D06BF354603384B
:10262000073815F0010F07D1013015F4807F02BF84
:10263000013015F4C03F0130F0BC0138704700BFD5
:102640007047704738B5074C0546084611460022CA
:1026500022601A46FEF76EFF431C02D1236803B1C5
:102660002B6038BDC40000200000000001020304FC
:102670000102030406070809000000000000000032
:1026800001020304060708090D0A20486F6C612047
:102690004D756E646F2025302E32660D0A000000E5
:1026A00010000020000000000000000000000000FA
:1026B000000000000000000000000000000000001A
:1026C000000000000000000000000000000000000A
:1026D00000000000000000000000000000000000FA
:1026E00000000000000000000000000000000000EA
:1026F00000000000000000000000000000000000DA
:1027000000000000232D302B2000686C4C00656613
:102710006745464700303132333435363738394132
:102720004243444546003031323334353637383948
:07273000616263646566004D
:1027380074000020000000000024F40010000020B5
:1027480000000000C4260008E4260008A4260008AB
:102758000000000000000000000000000000000071
:102768000000000000000000000000000000000061
:102778000000000000000000000000000000000051
:102788000000000000000000000000000000000041
:102798000000000000000000000000000000000031
:0400000508000311DB
:00000001FF
